:020000040800F2
:100000006008002029020008090B00087107000899
:10001000050B0008BD050008231B000800000000B8
:10002000000000000000000000000000650D000856
:10003000FD05000800000000990B00087D0E000877
:10004000430200084302000843020008430200087C
:10005000430200084302000843020008430200086C
:10006000430200084302000843020008430200085C
:10007000430200084302000843020008430200084C
:10008000430200084302000843020008430200083C
:10009000430200084302000843020008430200082C
:1000A0001D0F0008ED0F000843020008430200087E
:1000B000430200080D100008430200084302000834
:1000C00043020008430200084302000843020008FC
:1000D00043020008FD18000843020008430200081C
:1000E00043020008430200084302000843020008DC
:1000F00043020008430200084302000843020008CC
:1001000043020008430200084302000843020008BB
:1001100021160008430200084302000843020008B9
:10012000430200084302000843020008430200089B
:10013000430200084302000843020008430200088B
:10014000430200084302000843020008430200087B
:10015000430200084302000843020008430200086B
:10016000430200084302000843020008430200085B
:10017000430200084302000843020008430200084B
:10018000430200084302000800F002F800F03CF8C7
:100190000AA090E8000C82448344AAF10107DA45E2
:1001A00001D100F031F8AFF2090EBAE80F0013F0F8
:1001B000010F18BFFB1A43F001031847DC230000AE
:1001C000FC230000103A24BF78C878C1FAD852073F
:1001D00024BF30C830C144BF04680C6070470000C1
:1001E0000023002400250026103A28BF78C1FBD840
:1001F000520728BF30C148BF0B6070471FB502F0DF
:10020000A7F91FBD10B510BD00F090F81146FFF71B
:10021000F5FF01F011FD00F0AEF803B4FFF7F2FFB7
:1002200003BC01F080FC00000948804709480047F2
:10023000FEE7FEE7FEE7FEE7FEE7FEE7FEE7FEE796
:10024000FEE7FEE704480549054A064B70470000F3
:10025000810E00088901000860020020600800206B
:100260006004002060040020704710B5203AC0F000
:100270000B80B1E81850203AA0E81850B1E81850A7
:10028000A0E81850BFF4F5AF5FEA027C24BFB1E8E4
:100290001850A0E8185044BF18C918C0BDE8104055
:1002A0005FEA827C24BF51F8043B40F8043B08BF5E
:1002B0007047D20728BF31F8023B48BF11F8012B25
:1002C00028BF20F8023B48BF00F8012B70474FF0D1
:1002D000000200B5134694469646203922BFA0E896
:1002E0000C50A0E80C50B1F12001BFF4F7AF0907A2
:1002F00028BFA0E80C5048BF0CC05DF804EB890093
:1003000028BF40F8042B08BF704748BF20F8022BD5
:1003100011F0804F18BF00F8012B704770477047ED
:100320007047704700487047000200207546FFF78D
:10033000F9FFAE4605006946534620F007008546A2
:1003400018B020B5FFF77EFFBDE820404FF0000653
:100350004FF000074FF000084FF0000B21F00701AD
:10036000AC46ACE8C009ACE8C009ACE8C009ACE8F0
:10037000C0098D4670470446AFF300802046FFF762
:100380004CFF21B1826842F00102826003E0826882
:1003900022F00102826070470021084A1168084A71
:1003A0001140D0E900231A4383681A43C3681A43F3
:1003B0001143044AC2F804137047000004230140AB
:1003C000E030FCFF002001400146C86C80B270475D
:1003D0000246002013680B400BB1012000E0002012
:1003E0007047000030B50246002000235068104CD2
:1003F00020400D790C6844EA052420435060906841
:100400000C4C2040D1E903542C438D682C434D798A
:1004100044EA450420439060D06A20F470000C7DCB
:10042000641EE4B2234340EA0350D06230BD0000B2
:10043000FFFEFFFCFDF7FFC0F0B504460D460020AF
:100440000021092D11DDE068A5F10A0606EB46073B
:10045000072606FA07F18843A5F10A0606EB4606C9
:1004600003FA06F10843E0600CE0206905EB45075C
:10047000072606FA07F1884305EB450603FA06F15D
:1004800008432061072A0FDA606B561E06EB8607C9
:100490001F2606FA07F18843561E06EB860605FA64
:1004A00006F10843606322E00D2A0FDA206BD61FA5
:1004B00006EB86071F2606FA07F18843D61F06EBD0
:1004C000860605FA06F10843206310E0E06AA2F10F
:1004D0000D0606EB86071F2606FA07F18843A2F1F0
:1004E0000D0606EB860605FA06F10843E062F0BD4C
:1004F000816841F0804181607047000010B5FF21A4
:10050000014800F01AF910BD001402401CB5012189
:10051000202000F043FB4FF48070009001208DF804
:10052000040000208DF8060003208DF8050002204D
:100530008DF807006946084800F092F84FF4807182
:10054000054800F0FAF8642001F00EFB4FF48071CA
:10055000014800F0F0F81CBD0014024010B5A021C5
:10056000054800F0EAF85021034800F0E4F80F21B4
:10057000014800F0E2F810BD0014024010B5A821B7
:10058000054800F0DAF85421034800F0D4F80321BC
:10059000014800F0D2F810BD0014024010B5A421AB
:1005A000054800F0CAF85821034800F0C4F80321B8
:1005B000014800F0C2F810BD0014024000BFFEE781
:1005C0001CB50121202000F0E9FAFF200090012055
:1005D0008DF8040000208DF8060003208DF805003A
:1005E00001208DF807006946034800F039F8FF2123
:1005F000014800F0A2F81CBD001402407047000042
:1006000010B55021054800F098F8A021034800F0EB
:1006100092F80F21014800F090F810BD001402403C
:1006200010B55121054800F088F8A221034800F0D8
:1006300082F80C21014800F080F810BD001402403F
:1006400010B55221054800F078F8A121034800F0C8
:1006500072F80C21014800F070F810BD001402403F
:10066000F0B50A4600210023002400BF3DE001252B
:1006700005FA01F3156805EA03049C4234D10568C4
:100680004F000326BE40B543056015794E00B540C6
:100690000668354305601579012D02D01579022DC4
:1006A00016D185684F000326BE40B5438560557955
:1006B0004E00B540866835438560456801268E400A
:1006C000B5434560456896798E40B6B2354345607E
:1006D000C5684F000326BE40B543C560D5794E00BE
:1006E000B540C6683543C560491C1029BFD3F0BD6D
:1006F000F0B5002300244D07ED0E02FA05F3CE10ED
:1007000000F1200555F826504E07F70E0F26BE4083
:10071000B543CF1000F1200646F82750CE1000F167
:10072000200555F8265045EA0304CE1000F12005B7
:1007300045F82640F0BD41837047018370470000B3
:1007400010B504460423012221460848FFF774FE31
:100750000648FFF7CDFE00BF02210448FFF738FE30
:100760000028F9D00148FFF72FFE10BD00200140FE
:1007700000BFFEE74CF6CC4001490860704700001E
:10078000003000402DE9FF4141F2873744F29F14C9
:10079000042549F640460121480400F01FFA02975B
:1007A000ADF804400020ADF80600ADF80C0001A93A
:1007B000144800F0D3FE01221146124800F05BFD00
:1007C0000121104800F025FD19208DF800000020BF
:1007D0008DF801008DF8020001208DF803006846B5
:1007E00000F094F945F2555000F022F8284600F048
:1007F00013F8304600F016F800F006F8FFF7BAFFDD
:10080000BDE8FF81004401404AF6AA200149086082
:100810007047000000300040014948607047000008
:1008200000300040014988607047000000300040FF
:1008300001490860704700000030004000B58DB0ED
:100840000121084600F0AAF90121022000F0A6F9D2
:100850000121042000F0A2F90121202000F09EF9DE
:100860000121402000F09AF90121080200F0B6F9B8
:100870004FF4E0600B9001208DF8300002208DF8DD
:1008800033000BA93D48FFF7EBFE0F200B900BA99F
:100890003B48FFF7E5FE02200B900BA93948FFF714
:1008A000DFFE06200B900BA93748FFF7D9FE4FF467
:1008B00078400B900BA93148FFF7D2FE01200B9036
:1008C0000BA93248FFF7CCFE4FF4E0612B48FFF74D
:1008D00032FF0F212A48FFF72EFF02212948FFF798
:1008E0002AFF06212848FFF728FF4FF478412348C4
:1008F000FFF723FF01212548FFF71FFFF1200B9091
:1009000003208DF8300000208DF833000BA91D481E
:10091000FFF7A6FE30200B900BA91948FFF7A0FEA9
:1009200001200B900BA91848FFF79AFE012108023D
:1009300000F064F900214FF4807000F05FF90020AE
:1009400007900A9009904FF48030089007A8FFF7AD
:1009500023FD002001908DF808008DF80900039018
:10096000059008208DF8180001A90948FFF73AFD05
:1009700001210748FFF705FD0DB000BD001402403E
:10098000000802400000024000040240001802403B
:10099000002001402DE9F0412DED048B0746002495
:1009A0000325002608E03846FFF7CAFE044401206C
:1009B00001F0DAF8701CC6B2AE42F4DBB4FBF5F815
:1009C000404601F0B4FC41EC190B9FED080B53ECD1
:1009D000102B01F0BFFC41EC180B01F077FC00EE8E
:1009E000100ABDEC048BBDE8F08100006666666607
:1009F00066664A3F2DE9F0412DED048B0746002441
:100A00000525002609E03846FFF79AFE04444FF416
:100A1000FA7001F0C5F8701CC6B2AE42F3DBB4FB4D
:100A2000F5F8404601F083FC41EC190B9FED070BF4
:100A300053EC102B01F08EFC41EC180B01F046FC3E
:100A400000EE100ABDEC048BBDE8F08166666666B8
:100A500066664A3F1CB50121202000F09FF84FF444
:100A6000C060009001208DF8040000208DF8060081
:100A700003208DF8050001208DF80700694608481D
:100A8000FFF7EEFD4FF4C0610548FFF754FE1E204E
:100A900001F06AF84FF4C0610148FFF74EFE1CBD3B
:100AA0000014024010B505210548FFF746FE0A2153
:100AB0000348FFF740FEF0210148FFF73EFE10BD5E
:100AC0000014024010B525210548FFF736FE1A2113
:100AD0000348FFF730FEC0210148FFF72EFE10BD8E
:100AE0000014024010B515210548FFF726FE2A2103
:100AF0000348FFF720FEC0210148FFF71EFE10BD8E
:100B00000014024000BFFEE77047000070B50021EE
:100B100000230F22C4781CB3174C246804F4E0644B
:100B2000C4F5E064C4F30721C1F10404E3B20A414F
:100B300044789C40E1B28478144021430C07210E94
:100B40000E4C05786155047804F01F050124AC4073
:100B500005786D11AD0005F1E025C5F8004109E00B
:100B6000047804F01F050124AC40054D0678761189
:100B700045F8264070BD00000CED00E000E400E008
:100B800080E100E002490143024A11607047000021
:100B90000000FA050CED00E07047000029B1064A9C
:100BA00012680243044B1A6004E0034A126882434D
:100BB000014B1A60704700003038024029B1064AE4
:100BC00012680243044B1A6004E0034A126882432D
:100BD000014B1A60704700004038024029B1064AB4
:100BE00012680243044B1A6004E0034A126882430D
:100BF000014B1A60704700004438024029B1064A90
:100C000012680243044B1A6004E0034A12688243EC
:100C1000014B1A607047000024380240F0B50021F3
:100C200000220024022500260223324F3F6807F0ED
:100C30000C0121B1042905D0082937D105E02E4F38
:100C4000076036E02D4F076033E02A4F3F1F3F68B3
:100C5000C7F38056274F3F1F3F6807F03F036EB131
:100C6000264FB7FBF3F7DFF88CC0ACF1040CDCF8CF
:100C700000C0CCF3881C07FB0CF40CE01E4FB7FB44
:100C8000F3F7DFF870C0ACF1040CDCF800C0CCF373
:100C9000881C07FB0CF4174F3F1F3F68C7F3014741
:100CA0007F1C7D00B4FBF5F7076002E0124F076080
:100CB00000BF00BF0F4F3F6807F0F0010909104F58
:100CC0007A5C0768D74047600A4F3F6807F4E051F5
:100CD000890A0B4F7A5C4768D7408760054F3F68A9
:100CE00007F46041490B064F7A5C4768D740C760FC
:100CF000F0BD0000083802400024F40000127A0021
:100D00000000002010B50A210548FFF716FD052157
:100D10000348FFF710FDF0210148FFF70EFD10BD5D
:100D20000014024010B54A210548FFF706FD852151
:100D30000348FFF700FD30210148FFF7FEFC10BD1E
:100D40000014024010B58A210548FFF7F6FC452142
:100D50000348FFF7F0FC30210148FFF7EEFC10BD1F
:100D600000140240704700000CB500200190009074
:100D70003448006840F480303249086000BF314890
:100D8000006800F4003000900198401C0190009829
:100D900018B90198B0F5A04FF1D12A48006800F4C5
:100DA000003010B10120009001E000200090009878
:100DB000012846D123484030006840F08050214946
:100DC000403108602048006840F440401E490860F7
:100DD0001C48083000681B49083108600846006854
:100DE00040F4004008600846006840F4A0500860E5
:100DF0001648091F0860081F006840F08070091F2E
:100E0000086000BF0F48006800F000700028F9D0AB
:100E100040F205700E4908600A480830006820F06A
:100E200003000849083108600846006840F00200E5
:100E3000086000BF03480830006800F00C00082874
:100E4000F8D10CBD00380240007000400854400743
:100E5000003C0240042808D14FF0E021096941F02C
:100E600004014FF0E022116107E04FF0E021096931
:100E700021F004014FF0E02211617047704700003B
:100E800010B51548006840F4700013490860134815
:100E9000006840F001001149086000200F49083146
:100EA00008600E4800680E4908400C4908600D486B
:100EB000091D0860081F006820F48020091F0860D1
:100EC000002006490C310860FFF74EFF4FF000602C
:100ED00001498039086010BD88ED00E0003802400B
:100EE000FFFFF6FE1030002410B54FF4A060FFF7AE
:100EF00049FEA82000F01AFEFFF744FCFFF7AAFD08
:100F0000FFF704FBFFF75CFBFFF798FC532140F26F
:100F1000E73000F0E3F801F047F910BD10B53048B4
:100F2000007800F08000002854D101212D4800F005
:100F300091F9D0B12A48007800F04000A8B12848C3
:100F4000007800F03F003F280AD12548007840F0A3
:100F50008000234908704FF6FF702349088004E0A1
:100F60001F480078401C1E49087002211D4800F0EF
:100F700071F978B31A48007800F0400078B1184849
:100F8000007840F0800016490870164800F05CF9BF
:100F9000154908800021134800F0B4F91AE0002038
:100FA0000F490870104908800D48007840F0400053
:100FB0000B49087000210B4800F02BF9002109486B
:100FC00000F0C9FA0221074800F09CF90121054808
:100FD00000F01FF90321034800F018F910BD0000CC
:100FE0001A000020004001401C00002010B5012123
:100FF000054800F02FF9012801D1FFF705FC012178
:10100000014800F003F910BD0044014010B530481C
:10101000007800F08000002854D101212D4800F014
:1010200019F9D0B12A48007800F04000A8B128484A
:10103000007800F03F003F280AD12548007840F0B2
:101040008000234908704FF6FF702349088004E0B0
:101050001F480078401C1E49087004211D4800F0FC
:10106000F9F878B31A48007800F0400078B11848D1
:10107000007840F0800016490870164800F0E7F844
:10108000154908800021134800F0A0F91AE000205B
:101090000F490870104908800D48007840F0400062
:1010A0000B49087000210B4800F0B3F800210948F3
:1010B00000F051FA0221074800F088F901210548A3
:1010C00000F0A7F80521034800F0A0F810BD0000CB
:1010D0001E000020000400402000002030B58BB02E
:1010E00004460D4601210420FFF768FD0121082078
:1010F000FFF754FD02220C213C48FFF7F9FA0222C7
:101100000D213A48FFF7F4FA02220E213748FFF783
:10111000EFFA02220F213548FFF7EAFA02208DF894
:10112000280003208DF8290000208DF82A000120D6
:101130008DF82B004FF47040099009A92B48FFF758
:101140008FFAA8B2ADF818000020ADF81A00079485
:10115000ADF8200006A9264800F000FA7020ADF88E
:1011600004000120ADF806000220ADF81000204870
:1011700034300068039001A91D4800F085F808216B
:101180001B4800F0C8F81A4838300068039001A9DD
:10119000174800F0C9F80821154800F024F9144850
:1011A0003C300068039001A9114800F029F908219A
:1011B0000F4800F075F90E4840300068039001A90F
:1011C0000B4800F077F90821094800F0AFF9012138
:1011D000074800F00FF80121054800F01AF8012136
:1011E000034800F022F80BB030BD0000000C0240B4
:1011F0000008004021B1028842F08002028004E031
:1012000002884FF67F731A4002807047CA430282F9
:10121000704721B1028842F00102028004E0028896
:101220004FF6FE731A400280704731B1B0F8442087
:1012300042F40042A0F8442005E0B0F84420C2F394
:101240000E02A0F8442070470146486B70470146E3
:10125000886B704730B50246002000230024158AB1
:1012600005EA0103958905EA010413B10CB10120D7
:1012700000E0002030BD1AB183890B43838102E076
:1012800083898B438381704770B50024002200233B
:10129000058C4FF6FE7635400584028C8388048BDE
:1012A0004FF68F752C40B51E2C400D882C43751EB3
:1012B0002A408D892A434D882A43104DA84202D0E6
:1012C0000F4DA84213D14FF6F7752A40CD892A4316
:1012D0004FF6FB752A408D882A434FF6FF652B4059
:1012E0004FF6FF552B400D8A2B434D8A2B438380AD
:1012F00004838D684563028470BD000000000140D6
:10130000000401400A460021018C4FF6FD7319408C
:101310001143018470470A460021018B4FF6F77391
:10132000194011430183704770B500240022002347
:10133000058C4FF6EF7635400584028C8388048B4C
:1013400048F6FF752C404FF6FF452C400D884FF6B0
:10135000FF7606EA05252C434FF6DF752A408D8976
:1013600006EA05152A434D8806EA05152A43154D58
:10137000A84202D0144DA8421DD14FF67F752A40D5
:10138000CD894FF6FF7606EA05152A434FF6BF755D
:101390002A408D8806EA05152A434FF6FF352B4073
:1013A0004FF2FF752B400D8A06EA85052B434D8AC7
:1013B00006EA85052B43838004838D688563028458
:1013C00070BD000000000140000401400A460021F9
:1013D000018C4FF6DF7319404FF6FF7303EA0213D7
:1013E0001943018470470A460021018B4FF2FF73B5
:1013F00019404FF6FF7303EA022319430183704734
:1014000070B5002400220023058C4FF6FF6635409E
:101410000584028C8388848B4FF68F752C404FF6A1
:10142000FC752C400D882C434FF6FF552A408D89C2
:101430004FF6FF7606EA05252A434D8806EA05257C
:101440002A43154DA84202D0144DA8421DD14FF297
:10145000FF752A40CD894FF6FF7606EA05252A4317
:101460004FF6FF352A408D8806EA05252A434EF6B9
:10147000FF752B404DF6FF752B400D8A06EA0515CA
:101480002B434D8A06EA05152B43838084838D68A0
:10149000C563028470BD00000000014000040140EB
:1014A0000A460021818B4FF6F7731940114381835F
:1014B0007047000070B5002200230024058C4EF612
:1014C000FF7635400584038C8488828B48F6FF754F
:1014D0002A404FF6FF452A400D884FF6FF7606EA70
:1014E00005252A434DF6FF752B408D8906EA053503
:1014F0002B434D8806EA05352B430A4DA84202D0FE
:10150000094DA84208D14BF6FF752C400D8A4FF6C5
:10151000FF7606EA85152C43848082838D680564F6
:10152000038470BD00000140000401400A46002110
:10153000818B4FF2FF7319404FF6FF7303EA0223CA
:101540001943818370474163704781637047C1636A
:1015500070470164704741627047000000220288B2
:10156000184B98420ED0184B98420BD0B0F1804FD8
:1015700008D0164B984205D0154B984202D0154B17
:10158000984204D14FF68F731A404B881A43124B7E
:10159000984207D0114B984204D04FF6FF431A40AF
:1015A0000B891A4302804B68C3620B880385054B85
:1015B000984202D0044B984201D18B7A03860123D2
:1015C0008382704700000140000401400004004095
:1015D00000080040000C00400010004000140040D3
:1015E00010B504462046FFF7D5F9F0EE000AB4EE38
:1015F000E00AF1EE10FA01DD012010BD0020FCE749
:1016000010B504462046FFF7F5F9F0EE000AB4EEF7
:10161000E00AF1EE10FA01DD012010BD0020FCE728
:1016200070B540F225513C4800F0B8F9002872D05E
:10163000394800F06DFAC4B2AA2C17D13748008897
:1016400040F48040354908800846008800F4004096
:10165000002860D008460088C0F30D0030490C54C3
:101660002E480088401C2D49088054E02B480088F3
:1016700000F4804070B1BB2C04D14FF400402749E6
:10168000088048E0254800884BF6FF710840234950
:10169000088040E02148008800F40040D8B31F488B
:1016A0000088C0F30D001E490C541C480088401CE3
:1016B0001A4908801A480078801C0988C1F30D0176
:1016C000884228DC15480088C0F30D00082822DB7A
:1016D00013488079F8B91248807811494870032579
:1016E00007E00F4840780E49495D48400C49487072
:1016F0006D1C0B480078A842F3DA09484178074886
:101700000088C0F30D00401E054A105C814202D1E2
:1017100001200449086070BD004C004024000020F6
:10172000F400002028000020F0B5B3B005460E46B6
:101730001746082D2BD1012E29D1BC2104A8FEF774
:10174000C6FD6C4A07CA01AB07C39DF808008DF8B7
:101750000D00052407E09DF80D0001A9095D484032
:101760008DF80D00641C082CF5DD00240CE001A8A8
:10177000015D614800F0D1F900BF5F48008800F0CA
:1017800040000028F9D0641C092CF0DD00BF072DB3
:101790002CD1012E2AD1BC2104A8FEF798FD554A70
:1017A0000C3207CA01AB07C39DF808008DF80D0085
:1017B000052407E09DF80D0001A9095D48408DF85A
:1017C0000D00641C082CF5DD00240CE001A8015D6F
:1017D000494800F0A2F900BF4748008800F04000E7
:1017E0000028F9D0641C092CF0DD00BF012D2CD19C
:1017F000102E2AD1C02103A8FEF769FD3D491831FA
:1018000003C9CDE901019DF808008DF80C000524FD
:1018100007E09DF80C0001A9095D48408DF80C0017
:10182000641C072CF5DD00240CE001A8015D3248A2
:1018300000F073F900BF3048008800F04000002835
:10184000F9D0641C082CF0DD00BF052D4FD1102EFF
:101850004DD1B42106A8FEF73AFD142225492031C6
:1018600001A8FEF702FD082404E0387801A9085514
:101870007F1C641C102CF8DD9DF808008DF8170003
:1018800005240FE001A8005DAA2803D19DF81700E8
:101890008DF817009DF8170001A9095D48408DF8E3
:1018A0001700641C122CEDDD00241DE001A8015D71
:1018B000114800F032F900BF0F48008800F04000E6
:1018C0000028F9D0022C0EDB01A8005DAA280AD15D
:1018D0000021094800F021F900BF0748008800F006
:1018E00040000028F9D0641C132CDFDD00BF33B0AA
:1018F000F0BD000064250008004C004010B540F227
:1019000025511D4800F04AF810B31B4800F000F9BB
:10191000C4B21A48008800F40040C8B917480088CB
:1019200000F4804060B10A2C03D0002013490880E5
:1019300020E01248008840F400401049088019E077
:101940000D2C06D10D48008840F480400B490880DA
:1019500010E00A480088C0F30D0009490C540748FC
:101960000088401C0549088008460088C72801DD1A
:101970000020088010BD0000001001401800002069
:101980002C00002021B1828942F40052828104E0BF
:1019900082894DF6FF731A408281704770B5024606
:1019A000002400230025002040F66A16B14200D131
:1019B00000BFC1F3421501F01F03012606FA03F32D
:1019C000012D02D19689334006E0022D02D1168AFC
:1019D000334001E0968A33400C12012606FA04F4E3
:1019E0001688344013B10CB1012000E0002070BD16
:1019F000F0B50346002400260025002040F66A17B3
:101A0000B94200D100BF1846C1F3421401F01F06CD
:101A1000012707FA06F5012C01D10C3004E0022C55
:101A200001D1103000E014301AB107682F4307606D
:101A300002E00768AF430760F0BD00002DE9FF47F3
:101A400005460E460024A14600BFA046B08900B15D
:101A500000BF2C8A24F44054F08804432C82AC89C3
:101A600041F20C608443B08831890843718908438E
:101A70000443AC81AC8A24F44074B0890443AC8242
:101A80006846FFF7CBF82048854202D01F488542C0
:101A900002D1DDF80C9001E0DDF80890A88900F48F
:101AA000004040B109EBC90000EB09103168490062
:101AB000B0FBF1F707E009EBC90000EB0910316852
:101AC0008900B0FBF1F76420B7FBF0F004012009B6
:101AD000642101FB1078A88900F4004040B1322055
:101AE00000EBC800B0FBF1F000F00700044308E091
:101AF000322000EB08106421B0FBF1F000F00F0081
:101B000004432C81BDE8FF87001001400014014010
:101B100001468888C0F308007047C1F3080282803C
:101B2000704700BFFEE7014600BF704710B504468E
:101B30006FF00400FFF78EF9E11704EB5171C1F368
:101B4000C701074A11701046007800EB4001C1EB55
:101B5000C0104FF6FF7101EAC0000249088010BDB5
:101B6000100000201200002070B504464FF40770EA
:101B700094FBF0F0C6B24FF4077094FBF0F100FB59
:101B8000114085B205E04FF4077000F02FF8701E89
:101B9000C6B2002EF7D115B1284600F027F870BD67
:101BA0000146114A12784A434FF0E0235A6100225D
:101BB0009A611A46126942F001021A6100BF4FF0A1
:101BC000E022106900F001021AB100F48032002A0C
:101BD000F5D04FF0E022126922F001024FF0E0232D
:101BE0001A6100229A617047100000200146114AD4
:101BF00012884A434FF0E0235A6100229A611A4644
:101C0000126942F001021A6100BF4FF0E022106930
:101C100000F001021AB100F48032002AF5D04FF032
:101C2000E022126922F001024FF0E0231A61002243
:101C30009A61704712000020FFF756F900F028FA69
:101C400000F014F80FE04FF400710748FEF773FD41
:101C50006420FFF789FF4FF400710348FEF76DFD24
:101C60006420FFF781FFEEE7001402402DE9F84FF2
:101C70004FF000080024A1460025A2460026A346F6
:101C8000002700200090FEF739FCFEE1009830B1FB
:101C900001286ED002286DD0032819D178E10720E1
:101CA000FFF7AEFC82460F20FFF7AAFC8346BAF18D
:101CB000000F0ED002200090FEF750FC4FF4AF70E2
:101CC000FFF752FFFEF7EEFE4FF4FA70FFF74CFFFE
:101CD000DAE1BBF1000F0ED003200090FEF73EFCCE
:101CE0004FF4AF70FFF740FFFFF70CF84FF4FA70B6
:101CF000FFF73AFFC8E14FF47A71E448FFF723FC9D
:101D00004FF47A71E148FFF720FC4FF44871DF4847
:101D1000FFF71DFC4FF44871DC48FFF71AFC042064
:101D2000FFF75EFC04460620FFF75AFC05460E202E
:101D3000FFF756FC06460820FFF752FC074614B989
:101D40000DB906B91FB12CB925B91EB117B1FEF7EF
:101D5000D5FB21E017B10CB905B93EB117B10DB1F2
:101D600004B91EB13EB134B12FB925B9FEF768FCF4
:101D700012E012E08DE016B10CB905B93FB116B111
:101D80000DB104B91FB12CB127B11EB915B9FEF7B9
:101D900047FC01E0FEF734FC76E10720FFF730FC5A
:101DA00082460F20FFF72CFC8346BBF1000F0ED0BC
:101DB00003200090FEF724FC4FF4AF70FFF7D4FE31
:101DC000FEF7A0FF4FF4FA70FFF7CEFE5CE1BAF128
:101DD000000F0ED002200090FEF712FC4FF4AF70FF
:101DE000FFF7C2FEFEF75EFE4FF4FA70FFF7BCFE8F
:101DF0004AE14FF47A71A548FFF7A5FB4FF47A71D9
:101E0000A248FFF7A2FB4FF44871A048FFF79FFBE1
:101E10004FF448719D48FFF79CFB0420FFF7E0FB5F
:101E200004460620FFF7DCFB05460E20FFF7D8FB33
:101E300006460820FFF7D4FB074614B90DB906B9CA
:101E40001FB12CB925B91EB117B1FEF757FB1FE022
:101E500016B10CB905B93FB116B10CB105B91FB136
:101E60002DB127B11EB914B9FEF798FB10E017B1D8
:101E70000CB905B93EB117B10CB105B91EB12DB100
:101E800026B11FB914B9FEF779FB01E0FEF766FB36
:101E9000FAE00020FFF7B4FB80460520FFF7B0FB17
:101EA0008146B9F1000F0ED001200090FEF72AFF05
:101EB0004FF4AF70FFF758FEFEF750FB4FF4FA7087
:101EC000FFF752FEE0E0B8F1000F11D000200090C3
:101ED000FEF718FF4FF4AF70FFF746FEFEF790FBDA
:101EE0004FF4FA70FFF740FEFEF708FBBDE8F88FED
:101EF0004FF448716548FFF726FB4FF4487163487B
:101F0000FFF723FB4FF47A716048FFF720FB4FF493
:101F10007A715E48FFF71DFB0420FFF761FB044662
:101F20000620FFF75DFB05460E20FFF759FB06462E
:101F30000820FFF755FB074614B90DB906B91FB1C4
:101F40002EB927B91CB115B1FEF7D8FA1FE014B1AC
:101F50000FB905B93EB114B10FB105B91EB12EB11B
:101F600025B11FB914B9FEF7BDFD10E015B10CB9CC
:101F700006B93FB117B10DB104B91EB12CB126B1EC
:101F80001FB915B9FEF79EFD01E0FEF78BFD7BE062
:101F90000020FFF735FB80460520FFF731FB814627
:101FA000B8F1000F0ED000200090FEF77BFD4FF43B
:101FB000AF70FFF7D9FDFEF723FB4FF4FA70FFF780
:101FC000D3FD61E0B9F1000F0ED001200090FEF7C3
:101FD00069FD4FF4AF70FFF7C7FDFEF7BFFA4FF48E
:101FE000FA70FFF7C1FD4FE04FF448712748FFF743
:101FF000AAFA4FF448712548FFF7A7FA4FF47A710F
:102000002248FFF7A4FA4FF47A712048FFF7A1FAAB
:102010000420FFF7E5FA04460620FFF7E1FA05463B
:102020000E20FFF7DDFA06460820FFF7D9FA07462B
:1020300014B90DB906B91FB12EB927B91CB115B124
:10204000FEF75CFA1FE015B10CB907B93EB116B145
:102050000DB104B91FB12FB124B11EB915B9FEF7E6
:1020600071FE10E014B10DB906B93FB116B10CB153
:1020700005B91FB12DB127B11EB914B9FEF752FE33
:1020800001E0FEF73FFE00BF00BFFFE50008004093
:1020900070B5002508213F48FEF74FFB6420FFF78D
:1020A00063FD07E0002201210820FFF73DFB3220FD
:1020B000FFF75AFD384800680028F3D00020364961
:1020C00008605FE007E0002210210120FFF72CFBF1
:1020D0003220FFF749FD304800680028F3D0002087
:1020E0002D490860002416E000260DE004EB840072
:1020F00000EBC40029490844815D294AF01D105CA9
:10210000814200D002E0761C092EEFDB00BF092ED1
:1021100000DB02E0641CAC42E6DB00BFAC4231DB1A
:1021200000240AE01E49E01D085C05EB850101EB77
:10213000C5011A4A11440855641C092CF2DB0CE055
:1021400005EB850000EBC50014494218102105205D
:10215000FFF7EAFA3220FFF707FD0F480068002872
:10216000EED000200C4908604FF480710D48FEF756
:10217000E4FA1E20FFF7F8FC4FF480710948FEF7DF
:10218000DAFA6D1C032D9DDB08210248FEF7D3FA15
:1021900070BD0000000C024028000020BC0100209F
:1021A000F40000200014024010B588B04FF49644AB
:1021B00001210420FEF7F2FC01210820FEF7EEFCCD
:1021C0000121C804FEF7FAFC01210805FEF7F6FC20
:1021D0001820069001208DF81C0003208DF81D00AA
:1021E00000208DF81E0002208DF81F0006A933483C
:1021F000FEF736FA18213148FEF79DFA08220A2127
:102200002F48FEF775FA08220B212D48FEF770FAC9
:1022100008220C212A48FEF76BFA082202212748DF
:10222000FEF766FA4FF4E050069002208DF81C008D
:102230008DF81D0000208DF81E0001208DF81F0074
:1022400006A91F48FEF70CFA0420069006A91B48B1
:10225000FEF706FA02940020ADF80C00ADF80E006F
:10226000ADF81000ADF814000C20ADF8120002A972
:102270001448FFF7E3FB02A91348FFF7DFFB012136
:102280001048FFF77FFB01210F48FFF77BFB01227E
:1022900040F225510B48FFF7ABFB34208DF80400CA
:1022A00002208DF8050001208DF806008DF807004A
:1022B00001A8FEF72BFC08B010BD0000000C024086
:1022C00000080240004C00400050004021F0004255
:1022D000A2F16052B2F5801F01F0004328BFD2F195
:1022E0007F6C0BD95FEA001C43EAC20242EB5070DC
:1022F00018BF704728BF20F001007047B2F5801F5B
:10230000BCBF184670474FEA410C1CF5001F02D2B3
:10231000084600F022B970B500F0C6F80000008948
:10232000FFF7F6BF4FF00040A0F580007047B0FA0D
:1023300080F310FA03F10AD0C3F11D0303F58063A3
:102340004FEA41504FEA035202EBD12170474FF060
:1023500000007047DFF848C170B51CEA111E1EBFAF
:102360001CEA13159EEA0C0F95EA0C0F00F06F8023
:1023700081EA030423EA4C134EEAD47E21EA4C118D
:1023800041F4801143F48013AE44A1FB024CA0FB46
:102390000365AEF17F7E361955EB0C05A1FB034CAE
:1023A0004CF10003A0FB021C16EB0C06654153F137
:1023B0000003094218BF46F0010613F4007F0BD159
:1023C0004FEA03314FEA0530340341EA155140EA40
:1023D00016506FF003020AE04FEAC3214FEAC5200E
:1023E000F40241EA555140EA56506FF0020202EB06
:1023F0002E4201EB025585EACE710AD05FEA440C09
:1024000018BF24F0004450F1000041F1000120EA1F
:10241000D47040F2FE7C624500D270BDA84214BF69
:102420004FF080444FF04044002E08BF0024BEF11E
:10243000806FA8BFA1F1C041BDE8704080F28280EA
:102440004FF0000001F1C04101F0004170479EEAE9
:102450000C0F0CEA131518BF95EA0C0F06D04FF0BD
:10246000000081EA030E0EF0004170BD00F01CF880
:102470008900013E00F007B800F009B84FEA430CAC
:102480005FEA5C5C08D081EA030100F05BB84FEAC8
:10249000410C5FEA5C5CF6D14FF0000001497047E7
:1024A0000000FF070000F87F0EF1020E2EF0030E71
:1024B0005EF8046B364205D4012A43EB030515F59B
:1024C000001F12D8012841EB010C1CF5001F0CD88D
:1024D0000ED14FEAD17C15F5001F0CEB4C0C0CF122
:1024E000020C08BF4CEBD37C04E04FF0080C01E079
:1024F0004FEAD37C0CEB4C0526FA05F606F00706EE
:10250000B6F1040C06D20EEB860CBDE870404CF020
:10251000010C6047DFE80CF0090B02024FF00041AC
:102520004FF00000A1F5002170BD194610460128AA
:1025300051EB010418BFD4F5001484BF002001F052
:10254000004170BD0808A0F500114FEA3101704745
:102550004FF04070E1EE100A7047FF2141EAD05081
:10256000C0057047AABB060000000801310000004A
:10257000AABB06000000070103000000AABB05007B
:1025800000000110AABB10000000051000000000B0
:102590000000000000000300B82500080000002033
:1025A0002C000000C4010008E42500082C000020D5
:1025B00034080000E00100080000000001020304EC
:1025C00001020304060708090000000000000000E3
:1025D00000000000000000000000000000000000FB
:0425E00000000000F7
:040000050800018965
:00000001FF
