:020000040800F2
:100000004007002029020008590A0008C10600081C
:10001000550A00080D0500086B15000800000000D7
:10002000000000000000000000000000CD0B0008F0
:100030004D05000800000000E90A0008E50C000872
:10004000430200084302000843020008430200087C
:10005000430200084302000843020008430200086C
:10006000430200084302000843020008430200085C
:10007000430200084302000843020008430200084C
:10008000430200084302000843020008430200083C
:10009000430200084302000843020008430200082C
:1000A000810D0008510E00084302000843020008B9
:1000B00043020008710E00084302000843020008D2
:1000C00043020008430200084302000843020008FC
:1000D0004302000885140008430200084302000898
:1000E00043020008430200084302000843020008DC
:1000F00043020008430200084302000843020008CC
:1001000043020008430200084302000843020008BB
:1001100043020008430200084302000843020008AB
:10012000430200084302000843020008430200089B
:10013000430200084302000843020008430200088B
:10014000430200084302000843020008430200087B
:10015000430200084302000843020008430200086B
:10016000430200084302000843020008430200085B
:10017000430200084302000843020008430200084B
:10018000430200084302000800F002F800F03CF8C7
:100190000AA090E8000C82448344AAF10107DA45E2
:1001A00001D100F031F8AFF2090EBAE80F0013F0F8
:1001B000010F18BFFB1A43F001031847B01B0000E2
:1001C000D01B0000103A24BF78C878C1FAD8520773
:1001D00024BF30C830C144BF04680C6070470000C1
:1001E0000023002400250026103A28BF78C1FBD840
:1001F000520728BF30C148BF0B6070471FB501F0E0
:10020000ABFD1FBD10B510BD00F038F81146FFF76B
:10021000F5FF01F035FA00F056F803B4FFF7F2FFEE
:1002200003BC01F0A4F900000948804709480047D1
:10023000FEE7FEE7FEE7FEE7FEE7FEE7FEE7FEE796
:10024000FEE7FEE704480549054A064B70470000F3
:10025000E90C000889010008400100204007002047
:1002600040030020400300207047704770477047EC
:100270007047000000487047DC0000207546FFF71B
:10028000F9FFAE4605006946534620F00700854653
:1002900018B020B5FFF7D6FFBDE820404FF00006AC
:1002A0004FF000074FF000084FF0000B21F007015E
:1002B000AC46ACE8C009ACE8C009ACE8C009ACE8A1
:1002C000C0098D4670470446AFF300802046FFF713
:1002D000A4FF21B1826842F00102826003E08268DB
:1002E00022F00102826070470021084A1168084A22
:1002F0001140D0E900231A4383681A43C3681A43A4
:100300001143044AC2F8041370470000042301405B
:10031000E030FCFF002001400146C86C80B270470D
:100320000246002013680B400BB1012000E00020C2
:100330007047000030B50246002000235068104C82
:1003400020400D790C6844EA0524204350609068F1
:100350000C4C2040D1E903542C438D682C434D793B
:1003600044EA450420439060D06A20F470000C7D7C
:10037000641EE4B2234340EA0350D06230BD000063
:10038000FFFEFFFCFDF7FFC0F0B504460D46002060
:100390000021092D11DDE068A5F10A0606EB4607EC
:1003A000072606FA07F18843A5F10A0606EB46067A
:1003B00003FA06F10843E0600CE0206905EB45070D
:1003C000072606FA07F1884305EB450603FA06F10E
:1003D00008432061072A0FDA606B561E06EB86077A
:1003E0001F2606FA07F18843561E06EB860605FA15
:1003F00006F10843606322E00D2A0FDA206BD61F56
:1004000006EB86071F2606FA07F18843D61F06EB80
:10041000860605FA06F10843206310E0E06AA2F1BF
:100420000D0606EB86071F2606FA07F18843A2F1A0
:100430000D0606EB860605FA06F10843E062F0BDFC
:10044000816841F0804181607047000010B5FF2154
:10045000014800F01AF910BD001402401CB501213A
:10046000202000F043FB4FF48070009001208DF8B5
:10047000040000208DF8060003208DF805000220FE
:100480008DF807006946084800F092F84FF4807133
:10049000054800F0FAF8642001F08AF84FF4807102
:1004A000014800F0F0F81CBD0014024010B5A02176
:1004B000054800F0EAF85021034800F0E4F80F2165
:1004C000014800F0E2F810BD0014024010B5A82168
:1004D000054800F0DAF85421034800F0D4F803216D
:1004E000014800F0D2F810BD0014024010B5A4215C
:1004F000054800F0CAF85821034800F0C4F8032169
:10050000014800F0C2F810BD0014024000BFFEE731
:100510001CB50121202000F0E9FAFF200090012005
:100520008DF8040000208DF8060003208DF80500EA
:1005300001208DF807006946034800F039F8FF21D3
:10054000014800F0A2F81CBD0014024070470000F2
:1005500010B55021054800F098F8A021034800F09C
:1005600092F80F21014800F090F810BD00140240ED
:1005700010B55121054800F088F8A221034800F089
:1005800082F80C21014800F080F810BD00140240F0
:1005900010B55221054800F078F8A121034800F079
:1005A00072F80C21014800F070F810BD00140240F0
:1005B000F0B50A4600210023002400BF3DE00125DC
:1005C00005FA01F3156805EA03049C4234D1056875
:1005D0004F000326BE40B543056015794E00B54077
:1005E0000668354305601579012D02D01579022D75
:1005F00016D185684F000326BE40B5438560557906
:100600004E00B540866835438560456801268E40BA
:10061000B5434560456896798E40B6B2354345602E
:10062000C5684F000326BE40B543C560D5794E006E
:10063000B540C6683543C560491C1029BFD3F0BD1D
:10064000F0B5002300244D07ED0E02FA05F3CE109D
:1006500000F1200555F826504E07F70E0F26BE4034
:10066000B543CF1000F1200646F82750CE1000F118
:10067000200555F8265045EA0304CE1000F1200568
:1006800045F82640F0BD4183704701837047000064
:1006900010B504460423012221460848FFF774FEE2
:1006A0000648FFF7CDFE00BF02210448FFF738FEE1
:1006B0000028F9D00148FFF72FFE10BD00200140AF
:1006C00000BFFEE74CF6CC400149086070470000CF
:1006D000003000402DE9FF4141F2873744F29F147A
:1006E000042549F640460121480400F01FFA02970C
:1006F000ADF804400020ADF80600ADF80C0001A9EB
:10070000144800F05DFE01221146124800F0E5FC9D
:100710000121104800F0AFFC19208DF800000020E6
:100720008DF801008DF8020001208DF80300684665
:1007300000F094F945F2555000F022F8284600F0F8
:1007400013F8304600F016F800F006F8FFF7BAFF8D
:10075000BDE8FF81004401404AF6AA200149086033
:1007600070470000003000400149486070470000B9
:1007700000300040014988607047000000300040B0
:1007800001490860704700000030004000B58DB09E
:100790000121084600F0AAF90121022000F0A6F983
:1007A0000121042000F0A2F90121202000F09EF98F
:1007B0000121402000F09AF90121080200F0B6F969
:1007C0004FF4E0600B9001208DF8300002208DF88E
:1007D00033000BA93D48FFF7EBFE0F200B900BA950
:1007E0003B48FFF7E5FE02200B900BA93948FFF7C5
:1007F000DFFE06200B900BA93748FFF7D9FE4FF418
:1008000078400B900BA93148FFF7D2FE01200B90E6
:100810000BA93248FFF7CCFE4FF4E0612B48FFF7FD
:1008200032FF0F212A48FFF72EFF02212948FFF748
:100830002AFF06212848FFF728FF4FF47841234874
:10084000FFF723FF01212548FFF71FFFF1200B9041
:1008500003208DF8300000208DF833000BA91D48CF
:10086000FFF7A6FE30200B900BA91948FFF7A0FE5A
:1008700001200B900BA91848FFF79AFE01210802EE
:1008800000F064F900214FF4807000F05FF900205F
:1008900007900A9009904FF48030089007A8FFF75E
:1008A00023FD002001908DF808008DF809000390C9
:1008B000059008208DF8180001A90948FFF73AFDB6
:1008C00001210748FFF705FD0DB000BD00140240EF
:1008D00000080240000002400004024000180240EC
:1008E000002001402DE9F0412DED048B0746002446
:1008F0000325002608E03846FFF7CAFE044401201D
:1009000000F056FE701CC6B2AE42F4DBB4FBF5F844
:10091000404601F010F941EC190B9FED080B53EC28
:10092000102B01F01BF941EC180B01F0D3F800EE8D
:10093000100ABDEC048BBDE8F081000066666666B7
:1009400066664A3F2DE9F0412DED048B07460024F1
:100950000525002609E03846FFF79AFE04444FF4C7
:10096000FA7000F041FE701CC6B2AE42F3DBB4FB7D
:10097000F5F8404601F0DFF841EC190B9FED070B4D
:1009800053EC102B01F0EAF841EC180B01F0A2F83F
:1009900000EE100ABDEC048BBDE8F0816666666669
:1009A00066664A3F1CB50121202000F09FF84FF4F5
:1009B000C060009001208DF8040000208DF8060032
:1009C00003208DF8050001208DF8070069460848CE
:1009D000FFF7EEFD4FF4C0610548FFF754FE1E20FF
:1009E00000F0E6FD4FF4C0610148FFF74EFE1CBD6C
:1009F0000014024010B505210548FFF746FE0A2104
:100A00000348FFF740FEF0210148FFF73EFE10BD0E
:100A10000014024010B525210548FFF736FE1A21C3
:100A20000348FFF730FEC0210148FFF72EFE10BD3E
:100A30000014024010B515210548FFF726FE2A21B3
:100A40000348FFF720FEC0210148FFF71EFE10BD3E
:100A50000014024000BFFEE77047000070B500219F
:100A600000230F22C4781CB3174C246804F4E064FC
:100A7000C4F5E064C4F30721C1F10404E3B20A4100
:100A800044789C40E1B28478144021430C07210E45
:100A90000E4C05786155047804F01F050124AC4024
:100AA00005786D11AD0005F1E025C5F8004109E0BC
:100AB000047804F01F050124AC40054D067876113A
:100AC00045F8264070BD00000CED00E000E400E0B9
:100AD00080E100E002490143024A116070470000D2
:100AE0000000FA050CED00E07047000029B1064A4D
:100AF00012680243044B1A6004E0034A12688243FE
:100B0000014B1A60704700003038024029B1064A94
:100B100012680243044B1A6004E0034A12688243DD
:100B2000014B1A60704700004038024029B1064A64
:100B300012680243044B1A6004E0034A12688243BD
:100B4000014B1A60704700004438024029B1064A40
:100B500012680243044B1A6004E0034A126882439D
:100B6000014B1A60704700002438024010B50A217A
:100B70000548FFF78AFD05210348FFF784FDF021B2
:100B80000148FFF782FD10BD0014024010B54A2154
:100B90000548FFF77AFD85210348FFF774FD3021F2
:100BA0000148FFF772FD10BD0014024010B58A2104
:100BB0000548FFF76AFD45210348FFF764FD302132
:100BC0000148FFF762FD10BD0014024070470000AD
:100BD0000CB50020019000903448006840F480304B
:100BE0003249086000BF3148006800F400300090CE
:100BF0000198401C0190009818B90198B0F5A04FD9
:100C0000F1D12A48006800F4003010B101200090B2
:100C100001E0002000900098012846D12348403090
:100C2000006840F080502149403108602048006849
:100C300040F440401E4908601C48083000681B49C9
:100C4000083108600846006840F400400860084623
:100C5000006840F4A05008601648091F0860081F8B
:100C6000006840F08070091F086000BF0F480068EE
:100C700000F000700028F9D040F205700E490860BD
:100C80000A480830006820F003000849083108606D
:100C90000846006840F00200086000BF03480830C2
:100CA000006800F00C000828F8D10CBD00380240A4
:100CB0000070004008544007003C0240042808D15E
:100CC0004FF0E021096941F004014FF0E022116189
:100CD00007E04FF0E021096921F004014FF0E02224
:100CE000116170477047000010B51548006840F466
:100CF0007000134908601348006840F00100114972
:100D0000086000200F49083108600E4800680E494D
:100D100008400C4908600D48091D0860081F00685C
:100D200020F48020091F0860002006490C3108606B
:100D3000FFF74EFF4FF0006001498039086010BD99
:100D400088ED00E000380240FFFFF6FE103000247E
:100D500010B54FF4A060FFF7BDFEA82000F00AFC1C
:100D6000FFF7B8FCFFF71EFEFFF778FBFFF7D0FB9D
:100D7000FFF70CFD532140F2E73000F0E1F810BD21
:100D800010B53048007800F08000002854D10121CF
:100D90002D4800F091F9D0B12A48007800F04000C9
:100DA000A8B12848007800F03F003F280AD1254824
:100DB000007840F08000234908704FF6FF70234907
:100DC000088004E01F480078401C1E49087002217A
:100DD0001D4800F071F978B31A48007800F040001F
:100DE00078B11848007840F080001649087016481D
:100DF00000F05CF9154908800021134800F0B4F9AF
:100E00001AE000200F490870104908800D4800784A
:100E100040F040000B49087000210B4800F02BF90E
:100E20000021094800F0C9FA0221074800F09CF9A6
:100E30000121054800F01FF90321034800F018F9CB
:100E400010BD00000A000020004001400C000020FE
:100E500010B50121054800F02FF9012801D1FFF755
:100E60007BFC0121014800F003F910BD0044014062
:100E700010B53048007800F08000002854D10121DE
:100E80002D4800F019F9D0B12A48007800F0400050
:100E9000A8B12848007800F03F003F280AD1254833
:100EA000007840F08000234908704FF6FF70234916
:100EB000088004E01F480078401C1E490870042187
:100EC0001D4800F0F9F878B31A48007800F04000A7
:100ED00078B11848007840F080001649087016482C
:100EE00000F0E7F8154908800021134800F0A0F948
:100EF0001AE000200F490870104908800D4800785A
:100F000040F040000B49087000210B4800F0B3F896
:100F10000021094800F051FA0221074800F088F941
:100F20000121054800F0A7F80521034800F0A0F8CA
:100F300010BD00000E000020000400401000002042
:100F400030B58BB004460D4601210420FFF7DEFDCD
:100F500001210820FFF7CAFD02220C213C48FFF7BF
:100F60006FFB02220D213A48FFF76AFB02220E2195
:100F70003748FFF765FB02220F213548FFF760FB7A
:100F800002208DF8280003208DF8290000208DF81C
:100F90002A0001208DF82B004FF47040099009A918
:100FA0002B48FFF705FBA8B2ADF818000020ADF8FC
:100FB0001A000794ADF8200006A9264800F000FAB0
:100FC0007020ADF804000120ADF806000220ADF855
:100FD0001000204834300068039001A91D4800F03B
:100FE00085F808211B4800F0C8F81A483830006816
:100FF000039001A9174800F0C9F80821154800F02E
:1010000024F914483C300068039001A9114800F00D
:1010100029F908210F4800F075F90E4840300068A2
:10102000039001A90B4800F077F90821094800F066
:10103000AFF90121074800F00FF80121054800F041
:101040001AF80121034800F022F80BB030BD00006F
:10105000000C02400008004021B1028842F08002EA
:10106000028004E002884FF67F731A4002807047C6
:10107000CA430282704721B1028842F00102028015
:1010800004E002884FF6FE731A400280704731B1C7
:10109000B0F8442042F40042A0F8442005E0B0F843
:1010A0004420C2F30E02A0F8442070470146486B6A
:1010B00070470146886B704730B502460020002318
:1010C0000024158A05EA0103958905EA010413B194
:1010D0000CB1012000E0002030BD1AB183890B4320
:1010E000838102E083898B438381704770B500243C
:1010F00000220023058C4FF6FE7635400584028CD5
:101100008388048B4FF68F752C40B51E2C400D88BC
:101110002C43751E2A408D892A434D882A43104D41
:10112000A84202D00F4DA84213D14FF6F7752A40BE
:10113000CD892A434FF6FB752A408D882A434FF606
:10114000FF652B404FF6FF552B400D8A2B434D8AF0
:101150002B43838004838D684563028470BD000047
:1011600000000140000401400A460021018C4FF6B6
:10117000FD7319401143018470470A460021018B19
:101180004FF6F773194011430183704770B500247F
:1011900000220023058C4FF6EF7635400584028C43
:1011A0008388048B48F6FF752C404FF6FF452C4092
:1011B0000D884FF6FF7606EA05252C434FF6DF75BE
:1011C0002A408D8906EA05152A434D8806EA051549
:1011D0002A43154DA84202D0144DA8421DD14FF606
:1011E0007F752A40CD894FF6FF7606EA05152A431A
:1011F0004FF6BF752A408D8806EA05152A434FF63B
:10120000FF352B404FF2FF752B400D8A06EA85050E
:101210002B434D8A06EA85052B43838004838D6822
:101220008563028470BD000000000140000401409D
:101230000A460021018C4FF6DF7319404FF6FF7309
:1012400003EA02131943018470470A460021018B07
:101250004FF2FF7319404FF6FF7303EA022319435D
:101260000183704770B5002400220023058C4FF6DF
:10127000FF6635400584028C8388848B4FF68F751A
:101280002C404FF6FC752C400D882C434FF6FF5533
:101290002A408D894FF6FF7606EA05252A434D88B8
:1012A00006EA05252A43154DA84202D0144DA8424E
:1012B0001DD14FF2FF752A40CD894FF6FF7606EA21
:1012C00005252A434FF6FF352A408D8806EA052575
:1012D0002A434EF6FF752B404DF6FF752B400D8AC5
:1012E00006EA05152B434D8A06EA05152B43838034
:1012F00084838D68C563028470BD000000000140D6
:10130000000401400A460021818B4FF6F773194013
:10131000114381837047000070B500220023002430
:10132000058C4EF6FF7635400584038C8488828BCD
:1013300048F6FF752A404FF6FF452A400D884FF6C4
:10134000FF7606EA05252A434DF6FF752B408D8969
:1013500006EA05352B434D8806EA05352B430A4D31
:10136000A84202D0094DA84208D14BF6FF752C4087
:101370000D8A4FF6FF7606EA85152C43848082831A
:101380008D680564038470BD0000014000040140C5
:101390000A460021818B4FF2FF7319404FF6FF730D
:1013A00003EA0223194381837047416370478163D5
:1013B0007047C16370470164704741627047000025
:1013C00000220288184B98420ED0184B98420BD03E
:1013D000B0F1804F08D0164B984205D0154B98427B
:1013E00002D0154B984204D14FF68F731A404B88A8
:1013F0001A43124B984207D0114B984204D04FF633
:10140000FF431A400B891A4302804B68C3620B8862
:101410000385054B984202D0044B984201D18B7A48
:1014200003860123838270470000014000040140CD
:101430000004004000080040000C00400010004084
:101440000014004010B504462046FFF74BFAF0EEBA
:10145000000AB4EEE00AF1EE10FA01DD012010BD41
:101460000020FCE710B504462046FFF76BFAF0EECB
:10147000000AB4EEE00AF1EE10FA01DD012010BD21
:101480000020FCE710B540F225511D4800F03EF861
:1014900010B31B4800F064F8C4B21A48008800F486
:1014A0000040C8B91748008800F4804060B10A2C99
:1014B00003D000201349088020E01248008840F43F
:1014C00000401049088019E00D2C06D10D48008815
:1014D00040F480400B49088010E00A480088C0F3BF
:1014E0000D0009490C5407480088401C0549088034
:1014F00008460088C72801DD0020088010BD0000D4
:1015000000100140080000201400002070B50246C1
:10151000002400230025002040F66A16B14200D1C5
:1015200000BFC1F3421501F01F03012606FA03F3C1
:10153000012D02D19689334006E0022D02D1168A90
:10154000334001E0968A33400C12012606FA04F477
:101550001688344013B10CB1012000E0002070BDAA
:1015600001468888C0F30800704700BFFEE70146C7
:1015700000BF704710B504466FF00400FFF79EFBF4
:10158000E11704EB5171C1F3C701074A117010460E
:10159000007800EB4001C1EBC0104FF6FF7101EA8B
:1015A000C0000249088010BD000000200200002099
:1015B00070B504464FF4077094FBF0F0C6B24FF4D8
:1015C000077094FBF0F100FB114085B205E04FF489
:1015D000077000F02FF8701EC6B2002EF7D115B1BB
:1015E000284600F027F870BD0146114A12784A4398
:1015F0004FF0E0235A6100229A611A46126942F0C4
:1016000001021A6100BF4FF0E022106900F00102F0
:101610001AB100F48032002AF5D04FF0E0221269AE
:1016200022F001024FF0E0231A6100229A61704714
:10163000000000200146114A12884A434FF0E0237F
:101640005A6100229A611A46126942F001021A6137
:1016500000BF4FF0E022106900F001021AB100F45F
:101660008032002AF5D04FF0E022126922F0010208
:101670004FF0E0231A6100229A61704702000020B7
:10168000FFF766FB00F014F80FE04FF40071074815
:10169000FEF7F9FF6420FFF78BFF4FF4007103485A
:1016A000FEF7F3FF6420FFF783FFEEE7001402402C
:1016B0002DE9F84F4FF000080024A1460025A2466E
:1016C0000026A346002700200090FEF7BFFEFEE1A3
:1016D000009830B101286ED002286DD0032819D1AE
:1016E00078E10720FFF7BEFE82460F20FFF7BAFE23
:1016F0008346BAF1000F0ED002200090FEF7D6FE0E
:101700004FF4C870FFF754FFFFF774F94FF4FA7005
:10171000FFF74EFFDAE1BBF1000F0ED0032000907F
:10172000FEF7C4FE4FF4C870FFF742FFFFF71EFA42
:101730004FF4FA70FFF73CFFC8E14FF47A71E448C8
:10174000FFF733FE4FF47A71E148FFF730FE4FF4B4
:101750004871DF48FFF72DFE4FF44871DC48FFF772
:101760002AFE0420FFF76EFE04460620FFF76AFEFD
:1017700005460E20FFF766FE06460820FFF762FECC
:10178000074614B90DB906B91FB12CB925B91EB158
:1017900017B1FEF75BFE21E017B10CB905B93EB1F8
:1017A00017B10DB104B91EB13EB134B12FB925B98D
:1017B000FEF7EEFE12E012E08DE016B10CB905B9AD
:1017C0003FB116B10DB104B91FB12CB127B11EB98B
:1017D00015B9FEF7CDFE01E0FEF7BAFE76E107206F
:1017E000FFF740FE82460F20FFF73CFE8346BBF129
:1017F000000F0ED003200090FEF7AAFE4FF4C87031
:10180000FFF7D6FEFFF7B2F94FF4FA70FFF7D0FEFC
:101810005CE1BAF1000F0ED002200090FEF798FEB6
:101820004FF4C870FFF7C4FEFFF7E4F84FF4FA7006
:10183000FFF7BEFE4AE14FF47A71A548FFF7B5FD08
:101840004FF47A71A248FFF7B2FD4FF44871A048F7
:10185000FFF7AFFD4FF448719D48FFF7ACFD042042
:10186000FFF7F0FD04460620FFF7ECFD05460E20CD
:10187000FFF7E8FD06460820FFF7E4FD074614B928
:101880000DB906B91FB12CB925B91EB117B1FEF7B4
:10189000DDFD1FE016B10CB905B93FB116B10CB1B1
:1018A00005B91FB12DB127B11EB914B9FEF71EFE3F
:1018B00010E017B10CB905B93EB117B10CB105B9BB
:1018C0001EB12DB126B11FB914B9FEF7FFFD01E01D
:1018D000FEF7ECFDFAE00020FFF7C4FD804605208E
:1018E000FFF7C0FD8146B9F1000F0ED00120009036
:1018F000FFF73CF94FF4C870FFF75AFEFEF7D6FD2C
:101900004FF4FA70FFF754FEE0E0B8F1000F11D089
:1019100000200090FFF72AF94FF4C870FFF748FE47
:10192000FEF716FE4FF4FA70FFF742FEFEF78EFD4B
:10193000BDE8F88F4FF448716548FFF736FD4FF466
:1019400048716348FFF733FD4FF47A716048FFF741
:1019500030FD4FF47A715E48FFF72DFD0420FFF74C
:1019600071FD04460620FFF76DFD05460E20FFF7CA
:1019700069FD06460820FFF765FD074614B90DB955
:1019800006B91FB12EB927B91CB115B1FEF75EFD1E
:101990001FE014B10FB905B93EB114B10FB105B9CB
:1019A0001EB12EB125B11FB914B9FFF743F810E0ED
:1019B00015B10CB906B93FB117B10DB104B91EB1DB
:1019C0002CB126B11FB915B9FFF724F801E0FFF7D4
:1019D00011F87BE00020FFF745FD80460520FFF76A
:1019E00041FD8146B8F1000F0ED000200090FFF7B6
:1019F00001F84FF4C870FFF7DBFDFEF7A9FD4FF4C7
:101A0000FA70FFF7D5FD61E0B9F1000F0ED00120AB
:101A10000090FEF7EFFF4FF4C870FFF7C9FDFEF727
:101A200045FD4FF4FA70FFF7C3FD4FE04FF44871E6
:101A30002748FFF7BAFC4FF448712548FFF7B7FC79
:101A40004FF47A712248FFF7B4FC4FF47A712048C2
:101A5000FFF7B1FC0420FFF7F5FC04460620FFF772
:101A6000F1FC05460E20FFF7EDFC06460820FFF7C7
:101A7000E9FC074614B90DB906B91FB12EB927B94B
:101A80001CB115B1FEF7E2FC1FE015B10CB907B9A6
:101A90003EB116B10DB104B91FB12FB124B11EB9B9
:101AA00015B9FFF783F810E014B10DB906B93FB1CD
:101AB00016B10CB105B91FB12DB127B11EB914B9BA
:101AC000FFF764F801E0FFF751F800BF00BFFFE542
:101AD0000008004021F00042A2F16052B2F5801FE0
:101AE00001F0004328BFD2F17F6C0BD95FEA001CE4
:101AF00043EAC20242EB507018BF704728BF20F083
:101B000001007047B2F5801FBCBF184670474FEA0E
:101B1000410C1CF5001F02D2084600F022B970B536
:101B200000F0C6F800000089FFF7F6BF4FF0004054
:101B3000A0F580007047B0FA80F310FA03F10AD0E4
:101B4000C3F11D0303F580634FEA41504FEA03528E
:101B500002EBD12170474FF000007047DFF848C119
:101B600070B51CEA111E1EBF1CEA13159EEA0C0F6D
:101B700095EA0C0F00F06F8081EA030423EA4C130E
:101B80004EEAD47E21EA4C1141F4801143F48013D3
:101B9000AE44A1FB024CA0FB0365AEF17F7E36197B
:101BA00055EB0C05A1FB034C4CF10003A0FB021C00
:101BB00016EB0C06654153F10003094218BF46F0CD
:101BC000010613F4007F0BD14FEA03314FEA0530D1
:101BD000340341EA155140EA16506FF003020AE05F
:101BE0004FEAC3214FEAC520F40241EA555140EAC9
:101BF00056506FF0020202EB2E4201EB025585EACD
:101C0000CE710AD05FEA440C18BF24F0004450F1B2
:101C1000000041F1000120EAD47040F2FE7C6245F0
:101C200000D270BDA84214BF4FF080444FF0404432
:101C3000002E08BF0024BEF1806FA8BFA1F1C041F3
:101C4000BDE8704080F282804FF0000001F1C04199
:101C500001F0004170479EEA0C0F0CEA131518BF03
:101C600095EA0C0F06D04FF0000081EA030E0EF04B
:101C7000004170BD00F01CF88900013E00F007B87B
:101C800000F009B84FEA430C5FEA5C5C08D081EAD7
:101C9000030100F05BB84FEA410C5FEA5C5CF6D1EF
:101CA0004FF00000014970470000FF070000F87F77
:101CB0000EF1020E2EF0030E5EF8046B364205D4D0
:101CC000012A43EB030515F5001F12D8012841EB4B
:101CD000010C1CF5001F0CD80ED14FEAD17C15F574
:101CE000001F0CEB4C0C0CF1020C08BF4CEBD37C2E
:101CF00004E04FF0080C01E04FEAD37C0CEB4C05FC
:101D000026FA05F606F00706B6F1040C06D20EEB2D
:101D1000860CBDE870404CF0010C6047DFE80CF029
:101D2000090B02024FF000414FF00000A1F5002125
:101D300070BD19461046012851EB010418BFD4F5B7
:101D4000001484BF002001F0004170BD0808A0F518
:101D500000114FEA310170474FF04070E1EE100A78
:101D60007047FF2141EAD050C00570478C1D000824
:101D70000000002014000000C4010008A01D00089D
:101D8000140000202C070000E00100080000000003
:101D90000000000000000000000000000000000043
:040000050800018965
:00000001FF
