:020000040800F2
:100000005809002029020008450A00087507000861
:10001000410A0008C105000809240008000000008A
:10002000000000000000000000000000A10C00081B
:100030000106000800000000D50A0008F90D0008BC
:10004000430200084302000843020008430200087C
:10005000430200084302000843020008430200086C
:10006000430200084302000843020008430200085C
:10007000430200084302000843020008430200084C
:10008000430200084302000843020008430200083C
:10009000430200084302000843020008430200082C
:1000A00069100008391100084302000843020008E3
:1000B000430200085D1100084302000843020008E3
:1000C00043020008430200084302000843020008FC
:1000D00043020008511E00084302000843020008C2
:1000E00043020008430200084302000843020008DC
:1000F00045130008430200084302000843020008B9
:1001000043020008430200084302000843020008BB
:1001100099180008751B00084302000843020008F4
:10012000430200084302000843020008430200089B
:10013000430200084302000843020008430200088B
:10014000430200084302000843020008430200087B
:10015000430200084302000843020008430200086B
:10016000430200084302000843020008430200085B
:10017000430200084302000843020008430200084B
:10018000430200084302000800F002F800F03CF8C7
:100190000AA090E8000C82448344AAF10107DA45E2
:1001A00001D100F031F8AFF2090EBAE80F0013F0F8
:1001B000010F18BFFB1A43F001031847604000000D
:1001C00080400000103A24BF78C878C1FAD852079E
:1001D00024BF30C830C144BF04680C6070470000C1
:1001E0000023002400250026103A28BF78C1FBD840
:1001F000520728BF30C148BF0B6070471FB503F0DE
:10020000D3FF1FBD10B510BD00F08CF81146FFF7ED
:10021000F5FF02F08BFA00F0AAF803B4FFF7F2FF43
:1002200003BC02F0F3F80000094880470948004782
:10023000FEE7FEE7FEE7FEE7FEE7FEE7FEE7FEE796
:10024000FEE7FEE704480549054A064B70470000F3
:10025000FD0D0008890100085803002058090020FE
:100260005805002058050020704710B5203AC0F00E
:100270000B80B1E81850203AA0E81850B1E81850A7
:10028000A0E81850BFF4F5AF5FEA027C24BFB1E8E4
:100290001850A0E8185044BF18C918C0BDE8104055
:1002A0005FEA827C24BF51F8043B40F8043B08BF5E
:1002B0007047D20728BF31F8023B48BF11F8012B25
:1002C00028BF20F8023B48BF00F8012B70474FF0D1
:1002D000000200B5134694469646203922BFA0E896
:1002E0000C50A0E80C50B1F12001BFF4F7AF0907A2
:1002F00028BFA0E80C5048BF0CC05DF804EB890093
:1003000028BF40F8042B08BF704748BF20F8022BD5
:1003100011F0804F18BF00F8012B704770477047ED
:1003200070477047754600F029F8AE4605006946EB
:10033000534620F00700854618B020B5FFF782FF2E
:10034000BDE820404FF000064FF000074FF00008D6
:100350004FF0000B21F00701AC46ACE8C009ACE857
:10036000C009ACE8C009ACE8C0098D467047044636
:10037000AFF300802046FFF750FF000000487047B1
:10038000F402002021B1826842F00102826003E0A1
:10039000826822F001028260704700000021084A52
:1003A0001168084A1140D0E900231A4383681A43B0
:1003B000C3681A431143044AC2F80413704700008B
:1003C00004230140E030FCFF002001400146C86CDE
:1003D00080B270470246002013680B400BB1012029
:1003E00000E000207047000030B5024600200023E6
:1003F0005068104C20400D790C6844EA05242043D5
:10040000506090680C4C2040D1E903542C438D6817
:100410002C434D7944EA450420439060D06A20F48F
:1004200070000C7D641EE4B2234340EA0350D062A6
:1004300030BD0000FFFEFFFCFDF7FFC0F0B5044635
:100440000D4600200021092D11DDE068A5F10A0606
:1004500006EB4607072606FA07F18843A5F10A06C8
:1004600006EB460603FA06F10843E0600CE020695B
:1004700005EB4507072606FA07F1884305EB450615
:1004800003FA06F108432061072A0FDA606B561E53
:1004900006EB86071F2606FA07F18843561E06EB71
:1004A000860605FA06F10843606322E00D2A0FDA9A
:1004B000206BD61F06EB86071F2606FA07F1884336
:1004C000D61F06EB860605FA06F10843206310E006
:1004D000E06AA2F10D0606EB86071F2606FA07F171
:1004E0008843A2F10D0606EB860605FA06F10843DD
:1004F000E062F0BD816841F080418160704700009A
:1005000010B5FF21014800F01AF910BD0014024097
:100510001CB50121202000F0DFFA4FF4807000901C
:1005200001208DF8040000208DF8060003208DF8CE
:10053000050002208DF807006946084800F092F88F
:100540004FF48071054800F0FAF8642001F0AEFF26
:100550004FF48071014800F0F0F81CBD0014024017
:1005600010B5A021054800F0EAF85021034800F03A
:10057000E4F80F21014800F0E2F810BD0014024039
:1005800010B5A821054800F0DAF85421034800F01E
:10059000D4F80321014800F0D2F810BD0014024045
:1005A00010B5A421054800F0CAF85821034800F00E
:1005B000C4F80321014800F0C2F810BD0014024045
:1005C00000BFFEE71CB50121202000F085FAFF20C6
:1005D000009001208DF8040000208DF80600032013
:1005E0008DF8050001208DF807006946034800F0EA
:1005F00039F8FF21014800F0A2F81CBD00140240A8
:100600007047000010B55021054800F098F8A0216F
:10061000034800F092F80F21014800F090F810BD57
:100620000014024010B55121054800F088F8A221BD
:10063000034800F082F80C21014800F080F810BD5A
:100640000014024010B55221054800F078F8A121AD
:10065000034800F072F80C21014800F070F810BD5A
:1006600000140240F0B50A4600210023002400BF18
:100670003DE0012505FA01F3156805EA03049C42F3
:1006800034D105684F000326BE40B5430560157997
:100690004E00B5400668354305601579012D02D03E
:1006A0001579022D16D185684F000326BE40B5434B
:1006B000856055794E00B54086683543856045684C
:1006C00001268E40B5434560456896798E40B6B2A6
:1006D00035434560C5684F000326BE40B543C5603D
:1006E000D5794E00B540C6683543C560491C102910
:1006F000BFD3F0BDF0B5002300244D07ED0E02FA84
:1007000005F3CE1000F1200555F826504E07F70EE0
:100710000F26BE40B543CF1000F1200646F8275003
:10072000CE1000F1200555F8265045EA0304CE10FE
:1007300000F1200545F82640F0BD41837047018354
:100740007047000010B504460423012221460848E2
:10075000FFF774FE0648FFF7CDFE00BF02210448F4
:10076000FFF738FE0028F9D00148FFF72FFE10BD33
:100770000020014000BFFEE74AF6AA2001490860B8
:10078000704700000030004000B58DB001210846E0
:1007900000F0A2F90121022000F09EF901210420BD
:1007A00000F09AF90121202000F096F90121402063
:1007B00000F092F90121080200F0AEF94FF4E06078
:1007C0000B9001208DF8300002208DF833000BA92A
:1007D0003D48FFF747FF0F200B900BA93B48FFF761
:1007E00041FF02200B900BA93948FFF73BFF062081
:1007F0000B900BA93748FFF735FF4FF478400B906B
:100800000BA93148FFF72EFF01200B900BA93248AE
:10081000FFF728FF4FF4E0612B48FFF78EFF0F2111
:100820002A48FFF78AFF02212948FFF786FF0621A1
:100830002848FFF784FF4FF478412348FFF77FFFF4
:1008400001212548FFF77BFFF1200B9003208DF855
:10085000300000208DF833000BA91D48FFF702FF80
:1008600030200B900BA91948FFF7FCFE01200B90DC
:100870000BA91848FFF7F6FE0121080200F05CF909
:1008800000214FF4807000F057F9002007900A9083
:1008900009904FF48030089007A8FFF77FFD0020F3
:1008A00001908DF808008DF809000390059008204C
:1008B0008DF8180001A90948FFF796FD01210748A6
:1008C000FFF760FD0DB000BD0014024000080240BB
:1008D00000000240000402400018024000200140D5
:1008E0002DE9F0412DED028B07460024032500265B
:1008F00008E03846FFF726FF0444012001F0D6FD4A
:10090000701CC6B2AE42F4DBB4FBF5F8404603F00F
:10091000C7FA41EC180B9FED060B53EC102B03F0BC
:100920000FFB41EC100BBDEC028BBDE8F081000029
:100930006666666666664A3F2DE9F0412DED028BDC
:10094000074600240825002609E03846FFF7FAFE8E
:1009500004444FF4FA7001F0C5FD701CC6B2AE42FB
:10096000F3DBB4FBF5F8404603F09AFA41EC180BC0
:100970009FED050B53EC102B03F0E2FA41EC100B4A
:10098000BDEC028BBDE8F0816666666666664A3F2E
:100990001CB50121202000F09FF84FF4C0600090AA
:1009A00001208DF8040000208DF8060003208DF84A
:1009B000050001208DF8070069460848FFF752FE40
:1009C0004FF4C0610548FFF7B8FE1E2001F06EFD30
:1009D0004FF4C0610148FFF7B2FE1CBD0014024095
:1009E00010B505210548FFF7AAFE0A210348FFF7C5
:1009F000A4FEF0210148FFF7A2FE10BD0014024042
:100A000010B525210548FFF79AFE1A210348FFF784
:100A100094FEC0210148FFF792FE10BD0014024071
:100A200010B515210548FFF78AFE2A210348FFF774
:100A300084FEC0210148FFF782FE10BD0014024071
:100A400000BFFEE77047000070B5002100230F22B1
:100A5000C4781CB3174C246804F4E064C4F5E06463
:100A6000C4F30721C1F10404E3B20A4144789C4075
:100A7000E1B28478144021430C07210E0E4C057816
:100A80006155047804F01F050124AC4005786D1110
:100A9000AD0005F1E025C5F8004109E0047804F057
:100AA0001F050124AC40054D0678761145F8264017
:100AB00070BD00000CED00E000E400E080E100E02B
:100AC00002490143024A1160704700000000FA0524
:100AD0000CED00E07047000029B1064A126802439D
:100AE000044B1A6004E0034A12688243014B1A6007
:100AF000704700003038024029B1064A12680243AC
:100B0000044B1A6004E0034A12688243014B1A60E6
:100B1000704700004038024029B1064A126802437B
:100B2000044B1A6004E0034A12688243014B1A60C6
:100B3000704700004438024029B1064A1268024357
:100B4000044B1A6004E0034A12688243014B1A60A6
:100B50007047000024380240F0B500210022002434
:100B6000022500260223324F3F6807F00C0121B115
:100B7000042905D0082937D105E02E4F076036E05B
:100B80002D4F076033E02A4F3F1F3F68C7F3805661
:100B9000274F3F1F3F6807F03F036EB1264FB7FB5B
:100BA000F3F7DFF88CC0ACF1040CDCF800C0CCF338
:100BB000881C07FB0CF40CE01E4FB7FBF3F7DFF8C3
:100BC00070C0ACF1040CDCF800C0CCF3881C07FB4F
:100BD0000CF4174F3F1F3F68C7F301477F1C7D0090
:100BE000B4FBF5F7076002E0124F076000BF00BFDB
:100BF0000F4F3F6807F0F0010909104F7A5C076852
:100C0000D74047600A4F3F6807F4E051890A0B4F0D
:100C10007A5C4768D7408760054F3F6807F46041BA
:100C2000490B064F7A5C4768D740C760F0BD0000AB
:100C3000083802400024F40000127A00000000206E
:100C400010B50A210548FFF77AFD05210348FFF793
:100C500074FDF0210148FFF772FD10BD0014024041
:100C600010B54A210548FFF76AFD85210348FFF7C3
:100C700064FD30210148FFF762FD10BD0014024001
:100C800010B58A210548FFF75AFD45210348FFF7B3
:100C900054FD30210148FFF752FD10BD0014024001
:100CA000704700000CB500200190009034480068A7
:100CB00040F480303249086000BF3148006800F4D9
:100CC000003000900198401C0190009818B90198DC
:100CD000B0F5A04FF1D12A48006800F4003010B1FF
:100CE0000120009001E0002000900098012846D1EA
:100CF00023484030006840F080502149403108606E
:100D00002048006840F440401E4908601C480830F4
:100D100000681B49083108600846006840F400403C
:100D200008600846006840F4A05008601648091F93
:100D30000860081F006840F08070091F086000BF4D
:100D40000F48006800F000700028F9D040F20570EC
:100D50000E4908600A480830006820F0030008497E
:100D6000083108600846006840F00200086000BFD3
:100D700003480830006800F00C000828F8D10CBDCA
:100D8000003802400070004008544007003C024018
:100D900010B509210548FFF7D2FC06210348FFF7EB
:100DA000CCFCF0210148FFF7CAFC10BD0014024042
:100DB00010B506210548FFF7C2FC09210348FFF7DB
:100DC000BCFCF0210148FFF7BAFC10BD0014024042
:100DD000042808D14FF0E021096941F004014FF0E7
:100DE000E022116107E04FF0E021096921F00401E0
:100DF0004FF0E022116170477047000010B51548B0
:100E0000006840F47000134908601348006840F01F
:100E100001001149086000200F49083108600E48A0
:100E200000680E4908400C4908600D48091D08601B
:100E3000081F006820F48020091F08600020064970
:100E40000C310860FFF72EFF4FF000600149803938
:100E5000086010BD88ED00E000380240FFFFF6FE9C
:100E60001030002410B54FF4A060FFF729FEA82031
:100E700001F0FEFAFFF78CFDFFF74AFBFFF7A2FB3C
:100E800001F0FAF8FFF780FC532140F2E73000F060
:100E9000CDF9532144F61F6000F098F802F0BEFC33
:100EA00002F08CFD01F0B6FA10BDF0B50C46154607
:100EB00000210022068C4FF6FE773E400684018B0F
:100EC000028C4FF60C7631407E1C06EA03162E4348
:100ED00031434FF6F576324044F001063243018348
:100EE0000284F0BDF0B50C46154600210022002614
:100EF000078C4FF6EF7C07EA0C070784018B028C06
:100F00004FF6FF7707EA041640F6FF4739404FF6E1
:100F1000FF7707EA033739434FF6FF7707EA0527DC
:100F200039434FF65F773A4046F010073A43018362
:100F30000284F0BDF0B50C461546002100220026C3
:100F4000078C4FF6FF6C07EA0C070784818B028C35
:100F50004FF6FF7707EA04264FF60C7739404FF635
:100F6000FF7707EA03172F4339434FF2FF573A4001
:100F700046F480773A4381830284F0BDF0B50C4695
:100F80001546002100220026078C4EF6FF7C07EA5A
:100F90000C070784818B028C4FF6FF7707EA043633
:100FA00040F6FF4739404FF6FF7707EA05273943F8
:100FB0004FF6FF7707EA0337394345F6FF773A40A4
:100FC00046F480573A4381830284F0BD30B58BB03C
:100FD00004460D4601214020FFF78EFD012102202D
:100FE000FFF77AFD09220F211D48FFF783FB02203E
:100FF0008DF828008DF8290000208DF82A000120A6
:101000008DF82B00C003099009A91548FFF72AFBAA
:10101000A8B2ADF818000020ADF81A000794ADF89A
:10102000200006A90F4800F0B9FB7020ADF80400BD
:101030000120ADF806000220ADF8100001A9094812
:1010400000F064FA0821074800F0BFFA01210548C2
:1010500000F088F90121034800F096F90BB030BD8B
:10106000000402400018004010B53048007800F03D
:101070008000002854D101212D4800F0A6F9D0B1FC
:101080002A48007800F04000A8B12848007800F015
:101090003F003F280AD12548007840F080002349CE
:1010A00008704FF6FF702349088004E01F4800785D
:1010B000401C1E49087002211D4800F086F978B3D3
:1010C0001A48007800F0400078B11848007840F0E5
:1010D000800016490870164800F071F9154908801B
:1010E0000021134800F000FA1AE000200F490870B0
:1010F000104908800D48007840F040000B49087006
:1011000000210B4800F040F90021094800F017FBCE
:101110000221074800F0E8F90121054800F034F900
:101120000321034800F02DF910BD00001A00002033
:10113000004001401C00002010B50121054800F0CE
:1011400044F9012801D1044908700121014800F047
:1011500018F910BD000001403B00002010B53048D8
:10116000007800F08000002854D101212D4800F0C3
:101170002CF9D0B12A48007800F04000A8B12848E6
:10118000007800F03F003F280AD12548007840F061
:101190008000234908704FF6FF702349088004E05F
:1011A0001F480078401C1E49087004211D4800F0AB
:1011B0000CF978B31A48007800F0400078B118486C
:1011C000007840F0800016490870164800F0FAF8E0
:1011D000154908800021134800F0EAF91AE00020C0
:1011E0000F490870104908800D48007840F0400011
:1011F0000B49087000210B4800F0C6F8002109488F
:1012000000F09DFA0221074800F0D2F901210548BB
:1012100000F0BAF80521034800F0B3F810BD000053
:101220001E000020000400402000002030B58BB0DC
:1012300004460D4601210420FFF75EFC0121082031
:10124000FFF74AFC02220C213C48FFF753FA022226
:101250000D213A48FFF74EFA02220E213748FFF7D8
:1012600049FA02220F213548FFF744FA02208DF88F
:10127000280003208DF8290000208DF82A00012085
:101280008DF82B004FF47040099009A92B48FFF707
:10129000E9F9A8B2ADF818000020ADF81A000794DB
:1012A000ADF8200006A9264800F078FA7020ADF8C5
:1012B00004000120ADF806000220ADF8100020481F
:1012C00034300068039001A91D4800F0CFF80821D0
:1012D0001B4800F012F91A4838300068039001A941
:1012E000174800F013F90821154800F06EF914486A
:1012F0003C300068039001A9114800F073F90821FF
:101300000F4800F0BFF90E4840300068039001A973
:101310000B4800F0C1F90821094800F0F9F9012152
:10132000074800F01FF80121054800F02DF80121C1
:10133000034800F035F80BB030BD0000000C02404F
:101340000008004010B50121054800F03EF80128D2
:1013500001D1FFF711FA0121014800F012F810BD88
:10136000001C004021B1028842F08002028004E0AB
:1013700002884FF67F731A4002807047CA43028288
:101380007047CA430282704721B1028842F00102CD
:10139000028004E002884FF6FE731A400280704714
:1013A00031B1B0F8442042F40042A0F8442005E0F6
:1013B000B0F84420C2F30E02A0F844207047014662
:1013C000486B70470146886B704730B50246002075
:1013D00000230024158A05EA0103958905EA010422
:1013E00013B10CB1012000E0002030BD70B50546FE
:1013F0000C46208850B92389A28861882846FFF7C7
:1014000054FDE188284600F09CF925E02088042856
:101410000AD12389A28861882846FFF763FDE18805
:10142000284600F097F917E0208808280AD1238978
:10143000A28861882846FFF77DFDE188284600F0F4
:1014400096F909E02389A28861882846FFF796FD6E
:10145000E188284600F094F970BD1AB183890B43E6
:10146000838102E083898B438381704770B50024B8
:1014700000220023058C4FF6FE7635400584028C51
:101480008388048B4FF68F752C40B51E2C400D8839
:101490002C43751E2A408D892A434D882A43104DBE
:1014A000A84202D00F4DA84213D14FF6F7752A403B
:1014B000CD892A434FF6FB752A408D882A434FF683
:1014C000FF652B404FF6FF552B400D8A2B434D8A6D
:1014D0002B43838004838D684563028470BD0000C4
:1014E00000000140000401400A460021018C4FF633
:1014F000FD7319401143018470470A460021018B96
:101500004FF6F773194011430183704770B50024FB
:1015100000220023058C4FF6EF7635400584028CBF
:101520008388048B48F6FF752C404FF6FF452C400E
:101530000D884FF6FF7606EA05252C434FF6DF753A
:101540002A408D8906EA05152A434D8806EA0515C5
:101550002A43154DA84202D0144DA8421DD14FF682
:101560007F752A40CD894FF6FF7606EA05152A4396
:101570004FF6BF752A408D8806EA05152A434FF6B7
:10158000FF352B404FF2FF752B400D8A06EA85058B
:101590002B434D8A06EA85052B43838004838D689F
:1015A0008563028470BD000000000140000401401A
:1015B0000A460021018C4FF6DF7319404FF6FF7386
:1015C00003EA02131943018470470A460021018B84
:1015D0004FF2FF7319404FF6FF7303EA02231943DA
:1015E0000183704770B5002400220023058C4FF65C
:1015F000FF6635400584028C8388848B4FF68F7597
:101600002C404FF6FC752C400D882C434FF6FF55AF
:101610002A408D894FF6FF7606EA05252A434D8834
:1016200006EA05252A43154DA84202D0144DA842CA
:101630001DD14FF2FF752A40CD894FF6FF7606EA9D
:1016400005252A434FF6FF352A408D8806EA0525F1
:101650002A434EF6FF752B404DF6FF752B400D8A41
:1016600006EA05152B434D8A06EA05152B438380B0
:1016700084838D68C563028470BD00000000014052
:10168000000401400A460021818B4FF6F773194090
:10169000114381837047000070B5002200230024AD
:1016A000058C4EF6FF7635400584038C8488828B4A
:1016B00048F6FF752A404FF6FF452A400D884FF641
:1016C000FF7606EA05252A434DF6FF752B408D89E6
:1016D00006EA05352B434D8806EA05352B430A4DAE
:1016E000A84202D0094DA84208D14BF6FF752C4004
:1016F0000D8A4FF6FF7606EA85152C438480828397
:101700008D680564038470BD000001400004014041
:101710000A460021818B4FF2FF7319404FF6FF7389
:1017200003EA0223194381837047C1627047416312
:10173000704781637047C1637047016470474162BD
:101740007047028B4FF6F3731A400283028B0A43F1
:1017500002837047028B4FF2FF331A400283028BE1
:101760004FF6FF7303EA01231A4302837047828B0B
:101770004FF6F3731A408283828B0A438283704749
:10178000828B4FF2FF331A408283828B4FF6FF73B6
:1017900003EA01231A438283704700000022028873
:1017A000184B98420ED0184B98420BD0B0F1804F96
:1017B00008D0164B984205D0154B984202D0154BD5
:1017C000984204D14FF68F731A404B881A43124B3C
:1017D000984207D0114B984204D04FF6FF431A406D
:1017E0000B891A4302804B68C3620B880385054B43
:1017F000984202D0044B984201D18B7A0386012390
:101800008382704700000140000401400004004052
:1018100000080040000C0040001000400014004090
:1018200010B52DED028B04462046FFF759F8B0EEB7
:10183000408AF0EE608A9FED070B53EC102B51ECC1
:10184000180B02F07BFC03D20120BDEC028B10BD13
:101850000020FAE7666666666666FE3F10B52DED07
:10186000028B04462046FFF767F8B0EE408AF0EEA0
:10187000608A9FED070B53EC102B51EC180B02F014
:101880005DFC03D20120BDEC028B10BD0020FAE705
:10189000CDCCCCCCCCCC004070B540F225513C48EE
:1018A00000F026FB002872D0394800F0DBFBC4B200
:1018B000AA2C17D13748008840F480403549088069
:1018C0000846008800F40040002860D008460088E0
:1018D000C0F30D0030490C542E480088401C2D499F
:1018E000088054E02B48008800F4804070B1BB2C85
:1018F00004D14FF400402749088048E0254800887B
:101900004BF6FF7108402349088040E021480088D9
:1019100000F40040D8B31F480088C0F30D001E49F2
:101920000C541C480088401C1A4908801A4800784A
:10193000801C0988C1F30D01884228DC1548008805
:10194000C0F30D00082822DB13488079F8B912484B
:10195000807811494870032507E00F4840780E4908
:10196000495D48400C4948706D1C0B480078A842FE
:10197000F3DA0948417807480088C0F30D00401E9B
:10198000054A105C814202D101200449086070BD03
:10199000004C00402C0000201801002030000020E6
:1019A000F0B5B3B005460E461746082D2BD1012ED3
:1019B00029D1BC2104A8FEF78AFC6C4A07CA01ABF6
:1019C00007C39DF808008DF80D00052407E09DF879
:1019D0000D0001A9095D48408DF80D00641C082C1C
:1019E000F5DD00240CE001A8015D614800F03FFB3B
:1019F00000BF5F48008800F040000028F9D0641C58
:101A0000092CF0DD00BF072D2CD1012E2AD1BC21DD
:101A100004A8FEF75CFC554A0C3207CA01AB07C3A9
:101A20009DF808008DF80D00052407E09DF80D00D5
:101A300001A9095D48408DF80D00641C082CF5DDF6
:101A400000240CE001A8015D494800F010FB00BF34
:101A50004748008800F040000028F9D0641C092C99
:101A6000F0DD00BF012D2CD1102E2AD1C02103A8FA
:101A7000FEF72DFC3D49183103C9CDE901019DF860
:101A800008008DF80C00052407E09DF80C0001A962
:101A9000095D48408DF80C00641C072CF5DD00241E
:101AA0000CE001A8015D324800F0E1FA00BF3048C7
:101AB000008800F040000028F9D0641C082CF0DDFC
:101AC00000BF052D4FD1102E4DD1B42106A8FEF731
:101AD000FEFB14222549203101A8FEF7C6FB08248D
:101AE00004E0387801A908557F1C641C102CF8DD2F
:101AF0009DF808008DF8170005240FE001A8005D8F
:101B0000AA2803D19DF817008DF817009DF817003B
:101B100001A9095D48408DF81700641C122CEDDD09
:101B200000241DE001A8015D114800F0A0FA00BFEB
:101B30000F48008800F040000028F9D0022C0EDB8E
:101B400001A8005DAA280AD10021094800F08FFAF7
:101B500000BF0748008800F040000028F9D0641C4E
:101B6000132CDFDD00BF33B0F0BD0000B44100082E
:101B7000004C004070B540F225513C4800F0B8F9E7
:101B8000002872D0394800F06DFAC4B2AA2C17D1DF
:101B90003748008840F4804035490880084600886E
:101BA00000F40040002860D008460088C0F30D0013
:101BB00030490C542E480088401C2D49088054E0C0
:101BC0002B48008800F4804070B1BB2C04D14FF446
:101BD00000402749088048E0254800884BF6FF71FF
:101BE00008402349088040E02148008800F4004074
:101BF000D8B31F480088C0F30D001E490C541C4880
:101C00000088401C1A4908801A480078801C0988FE
:101C1000C1F30D01884228DC15480088C0F30D008F
:101C2000082822DB13488079F8B9124880781149D6
:101C30004870032507E00F4840780E49495D484049
:101C40000C4948706D1C0B480078A842F3DA09482B
:101C5000417807480088C0F30D00401E054A105C1B
:101C6000814202D101200449086070BD005000404B
:101C70002E000020E001002034000020F0B5B3B0B9
:101C800005460E461746082D2BD1012E29D1BC2121
:101C900004A8FEF71CFB6C4A07CA01AB07C39DF8FA
:101CA00008008DF80D00052407E09DF80D0001A93E
:101CB000095D48408DF80D00641C082CF5DD0024FA
:101CC0000CE001A8015D614800F0D1F900BF5F4858
:101CD000008800F040000028F9D0641C092CF0DDD9
:101CE00000BF072D2CD1012E2AD1BC2104A8FEF75C
:101CF000EEFA554A0C3207CA01AB07C39DF808003B
:101D00008DF80D00052407E09DF80D0001A9095D7F
:101D100048408DF80D00641C082CF5DD00240CE013
:101D200001A8015D494800F0A2F900BF47480088BA
:101D300000F040000028F9D0641C092CF0DD00BF41
:101D4000012D2CD1102E2AD1C02103A8FEF7BFFAF5
:101D50003D49183103C9CDE901019DF808008DF80E
:101D60000C00052407E09DF80C0001A9095D48401E
:101D70008DF80C00641C072CF5DD00240CE001A894
:101D8000015D324800F073F900BF3048008800F070
:101D900040000028F9D0641C082CF0DD00BF052DA0
:101DA0004FD1102E4DD1B42106A8FEF790FA14227F
:101DB0002549203101A8FEF758FA082404E03878B4
:101DC00001A908557F1C641C102CF8DD9DF8080043
:101DD0008DF8170005240FE001A8005DAA2803D1A3
:101DE0009DF817008DF817009DF8170001A9095DEF
:101DF00048408DF81700641C122CEDDD00241DE016
:101E000001A8015D114800F032F900BF0F480088B9
:101E100000F040000028F9D0022C0EDB01A8005D84
:101E2000AA280AD10021094800F021F900BF07487B
:101E3000008800F040000028F9D0641C132CDFDD7E
:101E400000BF33B0F0BD0000E84100080050004082
:101E500010B540F225511D4800F04AF810B31B4858
:101E600000F000F9C4B21A48008800F40040C8B974
:101E70001748008800F4804060B10A2C03D000208D
:101E80001349088020E01248008840F400401049BF
:101E9000088019E00D2C06D10D48008840F48040E0
:101EA0000B49088010E00A480088C0F30D0009497A
:101EB0000C5407480088401C0549088008460088E3
:101EC000C72801DD0020088010BD0000001001407F
:101ED000180000203C00002021B1828942F4005209
:101EE000828104E082894DF6FF731A408281704737
:101EF00070B50246002400230025002040F66A1633
:101F0000B14200D100BFC1F3421501F01F03012609
:101F100006FA03F3012D02D19689334006E0022D23
:101F200002D1168A334001E0968A33400C12012612
:101F300006FA04F41688344013B10CB1012000E015
:101F4000002070BDF0B503460024002600250020C7
:101F500040F66A17B94200D100BF1846C1F34214D7
:101F600001F01F06012707FA06F5012C01D10C30FC
:101F700004E0022C01D1103000E014301AB10768DF
:101F80002F43076002E00768AF430760F0BD000021
:101F90002DE9FF4705460E460024A14600BFA04696
:101FA000B08900B100BF2C8A24F44054F088044367
:101FB0002C82AC8941F20C608443B088318908439B
:101FC000718908430443AC81AC8A24F44074B0891D
:101FD0000443AC826846FEF7BFFD2048854202D02C
:101FE0001F48854202D1DDF80C9001E0DDF8089031
:101FF000A88900F4004040B109EBC90000EB0910CA
:1020000031684900B0FBF1F707E009EBC90000EBCC
:10201000091031688900B0FBF1F76420B7FBF0F0DC
:1020200004012009642101FB1078A88900F4004014
:1020300040B1322000EBC800B0FBF1F000F0070027
:10204000044308E0322000EB08106421B0FBF1F0FB
:1020500000F00F0004432C81BDE8FF870010014011
:102060000014014001468888C0F308007047C1F39E
:10207000080282807047000070B586B04FF6FF748A
:102080005325A72601211020FEF726FD0121080473
:10209000FEF742FD01210220FEF72EFD0121042062
:1020A000FEF71AFD01210220FEF716FD0A2004901A
:1020B00001208DF8140000208DF8160003208DF803
:1020C000150001208DF8170004A95E48FEF7CAFA32
:1020D0004FF40050049004A95B48FEF7C3FA0821AE
:1020E0005848FEF72AFB02215648FEF728FB4FF41A
:1020F00000515548FEF721FB4FF42270049004A9CB
:102100005248FEF7AFFA08215048FEF716FB4FF48D
:1021100000714E48FEF713FB80214C48FEF70DFB83
:102120002020049002208DF8140003208DF8150063
:1021300000208DF8160002208DF8170004A94148F0
:10214000FEF790FA032205213E48FEF7D3FAADF8D8
:1021500004600020ADF806000294ADF80C0001A95F
:102160003B48FFF71BFB00203A49088048800120CC
:1021700088800020C88008813548FFF737F90122A0
:1021800003213348FFF769F901213148FFF7FCF8D3
:1021900018208DF8000002208DF8010000208DF835
:1021A000020001208DF803006846FEF74DFC202058
:1021B000049002208DF8140003208DF815000020F3
:1021C0008DF8160002208DF8170004A91F48FEF7AD
:1021D00049FA022205211D48FEF78CFAADF8045099
:1021E0000020ADF806000294ADF80C0001A91A48D1
:1021F000FFF7D4FA04201949088000204880012004
:1022000088800020C88008811348FFF7EFF801227A
:1022100005211148FFF721F901210F48FFF7B4F814
:102220001D208DF8000002208DF8010000208DF89F
:10223000020001208DF803006846FEF705FC06B099
:1022400070BD00000010024000080240000402407F
:102250000040014004010020000400400E01002065
:102260002DE9F04700210C460D4600BF4FF00A084B
:102270004FF448715C48FFF75AFA4FF448715A48D6
:10228000FFF757FA4FF448715748FFF754FA4FF4E5
:1022900048715548FFF751FAA4E008215348FEF76A
:1022A0004EFA80215248FEF74AFA0A2000F01AF945
:1022B00008214E48FEF741FA80214D48FEF73DFACD
:1022C0004C48007800F08000C0B14A48007800F027
:1022D0003F00C51704464FF6FF7200202346A3FBBC
:1022E00002C905FB029104FB0015644642480088C0
:1022F000241845F1000500203E4908703F48007849
:1023000000F0800000286AD03C48007800F03F00D0
:10231000C71706464FF6FF7300223146A1FB03C9DB
:1023200007FB039006FB020766463548008836180F
:1023300047F10007B8F1000F27D13248006890B983
:1023400040F2C6210020091BA84105DA40F2C6214F
:102350000020891BB84103DBFEF7D2F8BDE8F08707
:10236000FEF750F938E04FF439710020091BA841FD
:1023700005DA4FF439710020891BB84102DBFEF702
:10238000BFF8EBE7FEF73EF926E0B8F1010F02DDFA
:10239000A8F1010820E0A21B65EB07000021D2F1A3
:1023A000060281410FDB321B67EB05000021D2F1F1
:1023B0000602814107DB4FF00008FEF7A1F80A2072
:1023C00000F074F808E0A01B75EB070002DAFEF7D6
:1023D000DFFC01E0FEF7ECFC002008490870142047
:1023E00000F064F859E700000008004000100240C7
:1023F000000402401A0000201C0000201E000020E3
:10240000200000202400002000BFFEE7014600BF9E
:10241000704700001CB501214020FEF75DFBC02085
:10242000009001208DF8040000208DF806000320A4
:102430008DF8050001208DF8070069460348FEF776
:1024400011F9C0210148FEF77AF91CBD00180240BD
:1024500010B540210148FEF770F910BD0018024088
:1024600010B540210148FEF76AF910BD001802407E
:1024700010B504466FF00400FEF7AAFCE11704EB68
:102480005171C1F3C701074A11701046007800EB83
:102490004001C1EBC0104FF6FF7101EAC0000249D4
:1024A000088010BD100000201200002070B5044606
:1024B0004FF4077094FBF0F0C6B24FF4077094FB32
:1024C000F0F100FB114085B205E04FF4077000F019
:1024D0002FF8701EC6B2002EF7D115B1284600F0B5
:1024E00027F870BD0146114A12784A434FF0E023A5
:1024F0005A6100229A611A46126942F001021A6179
:1025000000BF4FF0E022106900F001021AB100F4A0
:102510008032002AF5D04FF0E022126922F0010249
:102520004FF0E0231A6100229A61704710000020EA
:102530000146114A12884A434FF0E0235A610022B3
:102540009A611A46126942F001021A6100BF4FF007
:10255000E022106900F001021AB100F48032002A72
:10256000F5D04FF0E022126922F001024FF0E02393
:102570001A6100229A6170471200002010B50020F5
:10258000002121E001EB810202EBC102664B1A44FB
:10259000527A012A07D1022801D0032801D1032051
:1025A00011E001200FE001EB810202EBC1025E4B62
:1025B0001A44527A022A06D1012801D0032801D1F7
:1025C000032000E00220491C0529DBDB0021A6E0F6
:1025D00001EB810202EBC102534B1A44527A012AE9
:1025E00033D101EB810202EBC1021A44D27A012AF3
:1025F00006D0022A0DD0032A14D0042A24D11AE0CE
:10260000052201EB810303EBC103474C23441A73FA
:102610001AE0062201EB810303EBC103424C234481
:102620001A7311E0072201EB810303EBC1033E4C57
:1026300023441A7308E0082201EB810303EBC10372
:10264000394C23441A7300BF68E001EB810202EBAE
:10265000C102354B1A44527A022A5FD101EB810242
:1026600002EBC1021A44D27A012A06D0022A18D0FB
:10267000032A2AD0042A50D13BE0022808D10022A4
:1026800001EB810303EBC103274C23441A7344E09D
:10269000012201EB810303EBC103234C23441A7392
:1026A0003BE0022808D1012201EB810303EBC103C7
:1026B0001D4C23441A7330E0022201EB810303EB2B
:1026C000C103194C23441A7327E0022808D10222BF
:1026D00001EB810303EBC103134C23441A731CE089
:1026E000032201EB810303EBC1030F4C23441A7354
:1026F00013E0022808D1032201EB810303EBC1039D
:10270000094C23441A7308E0042201EB810303EB14
:10271000C103054C23441A7300BF00BF491C05299F
:10272000FFF656AF10BD0000A8020020FEF79AFB8E
:1027300000F01AFF41F28830FFF7B8FEFFF71EFFE6
:1027400004464FF461711748FEF7F1FF4FF46171D1
:102750001448FEF7EEFFFDF755FF40F2DC50FFF79F
:10276000A5FE012C02D100F021F806E0022C02D1D6
:1027700000F05CFA01E000F09DFC11E04FF4C06154
:102780000948FDF7DAFF4FF4FA70FFF78FFE4FF4B8
:10279000C0610548FDF7D3FF4FF4FA70FFF786FEDE
:1027A000ECE7000000080040001402402DE9FE4F55
:1027B0004FF000080024A1460025A2460026A346AB
:1027C00000270020029001900090FDF799FE2BE277
:1027D0000298052823D2DFE800F0036FDEFDFC003D
:1027E0000F20FFF73BF88346BBF1000F18D001988C
:1027F00040B9FDF707FF4FF47A70FFF757FE01204D
:1028000001900DE003200290FDF7AAFE9620FFF74D
:102810004DFEFEF715FA4FF44870FFF747FE02E24F
:102820004FF46171F848FEF782FF4FF46171F6488A
:10283000FEF77FFF4FF46171F348FEF77CFF4FF422
:102840006171F148FEF779FF0420FEF7E9FF0446C5
:102850000620FEF7E5FF05460E20FEF7E1FF0646DF
:102860000820FEF7DDFF07462CB925B91EB917B9B8
:1028700004200290D7E117B10CB905B93EB117B1E8
:102880000DB104B91EB12EB124B11FB915B9FDF7B0
:10289000D9FE10E016B10CB905B93FB116B10DB1B2
:1028A00004B91FB12CB127B11EB915B9FDF7BAFE95
:1028B00001E0FDF7A7FEB6E10720FEF7CFFF824655
:1028C000BAF1000F1BD0009840B9FDF749FE4FF454
:1028D0007A70FFF7EBFD0120009010E002200290DB
:1028E0000120CA490860FDF78DFE9620FFF7DEFD46
:1028F000FEF776F84FF44870FFF7D8FD93E14FF4F8
:102900006171C148FEF713FF4FF46171BE48FEF7D5
:1029100010FF4FF46171BC48FEF70DFF4FF4617179
:10292000B948FEF70AFF0420FEF77AFF04460620A6
:10293000FEF776FF05460E20FEF772FF06460820DA
:10294000FEF76EFF07462CB925B91EB917B904204A
:10295000029068E116B10CB905B93FB116B10CB1DE
:1029600005B91FB12DB127B11EB914B9FDF718FE75
:1029700010E017B10CB905B93EB117B10CB105B9EA
:102980001EB12DB126B11FB914B9FDF7F9FD01E053
:10299000FDF7E6FD47E10020FEF760FF8046B8F155
:1029A000000F03D0FDF7ACFDBDE8FE8F4FF4617161
:1029B0009548FEF7BCFE4FF461719348FEF7B9FEEF
:1029C0004FF461719048FEF7B6FE4FF461718E4886
:1029D00001E0DFE039E0FEF7B0FE0420FEF720FF63
:1029E00004460620FEF71CFF05460E20FEF718FFE2
:1029F00006460820FEF714FF07462CB925B91EB974
:102A000017B9042002900EE114B10FB905B93EB117
:102A100014B10FB105B91EB12EB125B11FB914B94A
:102A2000FDF7FEFF10E015B10CB906B93FB117B1C3
:102A30000DB104B91EB12CB126B11FB915B9FDF7FE
:102A4000DFFF01E0FDF7CCFFEDE000F049FE70484C
:102A50000078E0B3FEF7F4F86D480078FF280BD15A
:102A60004FF49660FFF722FD00206949087069491C
:102A70000870694908702AE04FF4FA60FFF716FD04
:102A8000FDF73EFDFFF7ECFB6148007801F010F91F
:102A90006048007818B15F48007801F009F95E4895
:102AA000007818B15C48007801F002F9FDF758FD94
:102AB00000BF0620FEF7B4FE0028FAD0FDF720FD87
:102AC0000020534908705349087053490870052085
:102AD000FEF7C4FE8146B9F1000F0FD0012002902D
:102AE0004E490860FDF77CFF9620FFF7DFFCFDF7FD
:102AF00037FD4FF44870FFF7D9FC94E04FF4617153
:102B00004148FEF714FE4FF461713F48FEF711FE95
:102B10004FF461713C48FEF70EFE4FF461713A4884
:102B2000FEF70BFE0420FEF77BFE04460620FEF7B0
:102B300077FE05460E20FEF773FE06460820FEF7D8
:102B40006FFE07462CB925B91EB917B904200290AB
:102B500069E015B10CB907B93EB116B10DB104B9B0
:102B60001FB12FB124B11EB915B9FEF789F810E0D5
:102B700014B10DB906B93FB116B10CB105B91FB109
:102B80002DB127B11EB914B9FEF76AF801E0FEF7BE
:102B900057F848E0FDF7B4FC0020FEF75FFE8046E2
:102BA0000520FEF75BFE81460720FEF757FE8246B2
:102BB0000F20FEF753FE8346B8F1000F02D1B9F1A2
:102BC000000F0ED0BAF1000F0BD1BBF1000F08D1EE
:102BD0001248006810B10120029023E0002002900A
:102BE00020E0B8F1000F1DD1B9F1000F1AD1BAF1F0
:102BF000000F17D0BBF1000F14D00448006878B163
:102C0000022002900EE00000000800402400002096
:102C100038000020390000203A0000202800002061
:102C20000320029000BF00BFD2E500002DE9F84F5D
:102C30004FF000080024A1460025A2460026A34626
:102C4000002700200090FDF75BFC31E2009805288A
:102C50001FD2DFE800F0036BD6FEFD000720FEF771
:102C6000FDFD82460F20FEF7F9FD8346BAF1000F05
:102C700010D1BBF1000F0DD003200090FDF770FCC8
:102C80009620FFF713FCFDF7DBFF4FF44870FFF7CA
:102C90000DFC0CE24FF46171FD48FEF748FD4FF466
:102CA0006171FB48FEF745FD4FF46171F848FEF78E
:102CB00042FD4FF46171F648FEF73FFD0420FEF738
:102CC000AFFD04460620FEF7ABFD05460E20FEF7DD
:102CD000A7FD06460820FEF7A3FD07462CB925B937
:102CE0001EB917B904200090E1E117B10CB905B97C
:102CF0003EB117B10DB104B91EB12EB124B11FB947
:102D000015B9FDF79FFC10E016B10CB905B93FB13C
:102D100016B10DB104B91FB12CB127B11EB915B947
:102D2000FDF780FC01E0FDF76DFCC0E10720FEF738
:102D300095FD82460F20FEF791FD8346BBF1000F03
:102D400013D1BAF1000F10D0022000900120D14918
:102D50000860FDF757FC9620FFF7A8FBFDF740FE43
:102D60004FF44870FFF7A2FBA1E14FF46171C8482E
:102D7000FEF7DDFC4FF46171C548FEF7DAFC4FF455
:102D80006171C348FEF7D7FC4FF46171C048FEF78C
:102D9000D4FC0420FEF744FD04460620FEF740FD67
:102DA00005460E20FEF73CFD06460820FEF738FDDE
:102DB00007462CB925B91EB917B90420009076E151
:102DC00016B10CB905B93FB116B10CB105B91FB1B7
:102DD0002DB127B11EB914B9FDF7E2FB10E017B110
:102DE0000CB905B93EB117B10CB105B91EB12DB181
:102DF00026B11FB914B9FDF7C3FB01E0FDF7B0FB25
:102E000055E10020FEF72AFD80460520FEF726FD4D
:102E10008146B9F1000F06D1B8F1000F03D0FDF7DC
:102E20006FFBBDE8F88F4FF461719948FEF77FFCA6
:102E30004FF461719648FEF77CFC4FF46171944841
:102E4000FEF779FC4FF461719148FEF776FC01E0E2
:102E5000E4E037E00420FEF7E3FC04460620FEF73A
:102E6000DFFC05460E20FEF7DBFC06460820FEF7D9
:102E7000D7FC07462CB925B91EB917B90420009014
:102E800015E114B10FB905B93EB114B10FB105B9CF
:102E90001EB12EB125B11FB914B9FDF7C1FD10E067
:102EA00015B10CB906B93FB117B10DB104B91EB1D6
:102EB0002CB126B11FB915B9FDF7A2FD01E0FDF750
:102EC0008FFDF4E000F00CFC73480078E0B3FDF7F0
:102ED000B7FE71480078FF280BD14FF47A70FFF7E6
:102EE000E5FA00206C4908706C4908706C4908705C
:102EF0002AE04FF4FA60FFF7D9FAFDF701FBFFF77C
:102F0000AFF96548007800F0D3FE6448007818B146
:102F10006248007800F0CCFE6148007818B1604843
:102F2000007800F0C5FEFDF71BFB00BF0620FEF792
:102F300077FC0028FAD0FDF7E3FA00205649087024
:102F400056490870564908700020FEF787FC8046F5
:102F50000520FEF783FC8146B9F1000F12D1B8F1CC
:102F6000000F0FD0012000904E490860FDF738FD9A
:102F70009620FFF79BFAFDF7F3FA4FF44870FFF73E
:102F800095FA94E04FF461714148FEF7D0FB4FF49D
:102F900061713F48FEF7CDFB4FF461713C48FEF78D
:102FA000CAFB4FF461713A48FEF7C7FB0420FEF7F5
:102FB00037FC04460620FEF733FC05460E20FEF7DC
:102FC0002FFC06460820FEF72BFC07462CB925B936
:102FD0001EB917B90420009069E015B10CB907B902
:102FE0003EB116B10DB104B91FB12FB124B11EB954
:102FF00015B9FDF745FE10E014B10DB906B93FB1A2
:1030000016B10CB105B91FB12DB127B11EB914B954
:10301000FDF726FE01E0FDF713FE48E0FDF770FA2C
:103020000020FEF71BFC80460520FEF717FC8146BA
:103030000720FEF713FC82460F20FEF70FFC8346A5
:10304000B8F1000F02D1B9F1000F0ED0BAF1000FA4
:103050000BD1BBF1000F08D11248006810B101205C
:10306000009023E00020009020E0B8F1000F1DD177
:10307000B9F1000F1AD1BAF1000F02D1BBF1000F64
:1030800014D00448006878B1022000900EE00000DF
:1030900000080040240000203800002039000020F3
:1030A0003A000020280000200320009000BF00BF4D
:1030B000CCE500002DE9FC5F4FF0000B0024A0469A
:1030C0000025A2460026A14600270020019000907E
:1030D000FDF716FA4FF46171FA48FEF728FB4FF43A
:1030E0006171F848FEF725FB4FF46171F548FEF772
:1030F00022FB4FF46171F348FEF71FFB2EE20198AB
:10310000052823D2DFE800F0035BBCFDFC000F20A4
:10311000FEF7A4FB8146B9F1000F18D0009840B922
:10312000FDF770FA4FF47A70FFF7C0F901200090B4
:103130000DE003200190FDF713FA9620FFF7B6F992
:10314000FDF77EFD4FF44870FFF7B0F905E204206B
:10315000FEF766FB04460620FEF762FB05460E20DE
:10316000FEF75EFB06460820FEF75AFB07462CB921
:1031700025B91EB917B904200190EEE117B10CB9B9
:1031800005B93EB117B10DB104B91EB12EB124B1CC
:103190001FB915B9FDF756FA10E016B10CB905B90B
:1031A0003FB116B10DB104B91FB12CB127B11EB991
:1031B00015B9FDF737FA01E0FDF724FACDE1072054
:1031C000FEF74CFB82460F20FEF748FB8146B9F123
:1031D000000F06D0BC480068D0B1FDF791F9BDE8FA
:1031E000FC9FBAF1000F13D0B748006880B90220E5
:1031F00001900120B4490860FDF704FA9620FFF71A
:1032000055F9FDF7EDFB4FF44870FFF74FF9A4E1D6
:103210000420FEF705FB04460620FEF701FB0546E9
:103220000E20FEF7FDFA06460820FEF7F9FA0746DB
:103230002CB925B91EB917B9042001908DE116B13A
:103240000CB905B93FB116B10CB105B91FB12DB11B
:1032500027B11EB914B9FDF7A3F910E017B10CB9E5
:1032600005B93EB117B10CB105B91EB12DB126B1EA
:103270001FB914B9FDF784F901E0FDF771F96CE1AC
:1032800000F02EFA91480078E0B3FDF7A9FB8F48D3
:103290000078FF280BD14FF47A70FFF707F9002070
:1032A0008A4908708A4908708A4908702EE04FF4EC
:1032B000FA60FFF7FBF8FDF723F9FEF7D1FF83482B
:1032C000007800F0F5FC8248007818B1804800785A
:1032D00000F0EEFC7F48007818B17E48007800F0DE
:1032E000E7FCFDF73DF900BF0620FEF799FA00283C
:1032F000FAD0FDF705F9002074490870744902E01E
:10330000EFE050E002E00870724908700520FEF717
:10331000A5FA8046B8F1000F0DD001200190FDF70D
:103320008FFC9620FFF7C2F8FDF71AF94FF44870AA
:10333000FFF7BCF811E10420FEF772FA04460620FC
:10334000FEF76EFA05460E20FEF76AFA06460820DA
:10335000FEF766FA07462CB925B91EB917B904203D
:103360000190FAE014B10FB905B93EB114B10FB133
:1033700005B91EB12EB125B11FB914B9FDF750FB27
:1033800010E015B10CB906B93FB117B10DB104B9D0
:103390001EB12CB126B11FB915B9FDF731FB01E003
:1033A000FDF71EFBD9E000F09BF948480078E0B338
:1033B000FDF746FC45480078FF280BD14FF47A70A2
:1033C000FFF774F8002041490870414908704149ED
:1033D00008702AE04FF4FA60FFF768F8FDF790F8FC
:1033E000FEF73EFF3948007800F062FC384800786C
:1033F00018B13748007800F05BFC3648007818B107
:103400003448007800F054FCFDF7AAF800BF06200D
:10341000FEF706FA0028FAD0FDF772F800202B49D3
:1034200008702B4908702B4908700520FEF716FA22
:103430008046B8F1000F0FD00120019026490860A6
:10344000FDF7CEFA9620FFF731F8FDF789F84FF433
:103450004870FFF72BF880E00420FEF7E1F90446FE
:103460000620FEF7DDF905460E20FEF7D9F90646DF
:103470000820FEF7D5F907462CB925B91EB917B9AA
:103480000420019069E015B10CB907B93EB116B13D
:103490000DB104B91FB12FB124B11EB915B9FDF793
:1034A000EFFB1DE014B10DB906B93FB116B10CB177
:1034B00005B91FB195B18FB186B97CB9FDF7D0FBC5
:1034C0000EE000000008004024000020380000202A
:1034D000390000203A00002028000020FDF7B0FB52
:1034E0003BE0FDF70DF80020FEF7B8F98346052014
:1034F000FEF7B4F980460720FEF7B0F982460F20A8
:10350000FEF7ACF98146BBF1000F11D0B8F1000F06
:103510000ED0BAF1000F0BD1B9F1000F08D110484D
:10352000006810B10120019016E00020019013E026
:10353000BBF1000F10D1B8F1000F0DD1BAF1000F9F
:1035400002D1B9F1000F07D00648006810B102207F
:10355000019001E00320019000BF00BFCFE5000013
:10356000280000202400002070B5002408215648BF
:10357000FDF7E5F86420FEF799FF07E0002201213E
:103580000820FEF70DFA3220FEF790FF4F48006842
:103590000028F3D010214C48FDF7D1F86420FEF745
:1035A00085FF07E0002201210820FEF767FB32209B
:1035B000FEF77CFF464800680028F3D0002044490D
:1035C00008604249086078E007E0002210210120ED
:1035D000FEF7E6F93220FEF769FF3C480068002854
:1035E000F3D0002039490860002516E000260DE0E0
:1035F00005EB850000EBC50036490844815D364A7D
:10360000F01D105C814200D002E0761C092EEFDB39
:1036100000BF092E00DB02E06D1CA542E6DB00BF07
:10362000A5424ADB00250AE02B49E81D085C04EBB3
:10363000840101EBC401274A114448556D1C092D32
:10364000F2DB0CE004EB840000EBC40021494218DB
:1036500010210520FEF7A4F93220FEF727FF1B48B2
:1036600000680028EED00020184908601A48C07988
:1036700004EB840101EBC401164A11444872164858
:10368000007A04EB840101EBC401114488721248F2
:10369000407A04EB840101EBC4011144C8724FF479
:1036A00080710E48FDF74BF8C820FEF7FFFE4FF47F
:1036B00080710A48FDF741F8641C052C84DB082161
:1036C0000148FDF73AF870BD000C024030000020C0
:1036D00034000020A802002018010020001402403D
:1036E00010B54748006800287FD046480078002879
:1036F0007BD143490860002405E04349E01D085C94
:1037000042490855641C092CF7DB07E03F4A1021A9
:103710000520FEF7B3FA3220FEF7C8FE38480068ED
:103720000028F3D00020364908603748C07937496F
:10373000487200244FE03548407A04EB840101EBE5
:10374000C401334A1144097B884243D12D48007893
:10375000A0B9601C2B490870084600780007000ECD
:10376000087004EB840000EBC40011460844807A22
:10377000244909780844234908702BE0254800783B
:10378000A0B9601C23490870084600780007000EA5
:10379000087004EB840000EBC4001D490844807AE3
:1037A0001C49097808441B49087013E0601C1A4939
:1037B0000870084600780007000E087004EB8400CB
:1037C00000EBC40012490844807A13490978084480
:1037D00011490870641C052CADDB0A48007810B94B
:1037E000FF200849087010BDFFE7002210210120CA
:1037F000FEF744FA0A20FEF759FE00BFF3E7000087
:103800003400002038000020E0010020E902002000
:10381000A8020020390000203A00002010B588B02E
:103820004FF4964401210420FDF756F901210820A8
:10383000FDF752F90121C804FDF75EF901210805E1
:10384000FDF75AF91820069001208DF81C0003207E
:103850008DF81D0000208DF81E0002208DF81F003D
:1038600006A93948FCF7FEFE18213748FCF765FF2A
:1038700008220A213548FCF73DFF08220B21334876
:10388000FCF738FF08220C213048FCF733FF0822F0
:1038900002212D48FCF72EFF4FF4E0500690022045
:1038A0008DF81C008DF81D0000208DF81E000120F1
:1038B0008DF81F0006A92548FCF7D4FE04200690C9
:1038C00006A92148FCF7CEFE02940020ADF80C00BA
:1038D000ADF80E00ADF81000ADF814000C20ADF8F6
:1038E000120002A91A48FEF753FB02A91948FEF775
:1038F0004FFB01211648FEF7EFFA01211548FEF7AC
:10390000EBFA012240F225511148FEF71BFB012280
:1039100040F225510F48FEF715FB34208DF80400C6
:1039200002208DF8050001208DF806008DF80700B3
:1039300001A8FDF789F835208DF8040001A8FDF7EE
:1039400083F808B010BD0000000C024000080240DF
:10395000004C0040005000402DE9F04140F2B225FB
:103960004FF4BE664FF48C6734460DE02146124892
:10397000FDF7DFFEBC4203D31E20FEF797FD02E0F9
:103980001920FEF793FD0A3CAC42EFD24FF47A7057
:10399000FEF78CFD2C4607E021460748FDF7C9FEDF
:1039A0002820FEF783FD0A34B442F5D900210248ED
:1039B000FDF7BFFEBDE8F0810018004030B58BB0C8
:1039C00040F69F75A72401214020FDF785F80121CD
:1039D0000420FDF781F83C20099001208DF8280093
:1039E00000208DF82A0003208DF8290001208DF891
:1039F0002B0009A93B48FCF735FE3C213948FCF770
:103A00009CFE01210846FDF787F801211020FDF7F3
:103A100063F801220B213448FCF76CFE01220D21D2
:103A20003148FCF767FE02208DF8280003208DF84E
:103A3000290000208DF82A0001208DF82B004FF47A
:103A40002050099009A92848FCF70CFEADF8184051
:103A50000020ADF81A000795ADF8200009208DF878
:103A6000220006A92148FDF799FE01211F48FDF714
:103A700085FC012211461D48FDF7EFFC7020ADF8D2
:103A800004000120ADF806000220ADF81000174830
:103A9000806B039001A91548FDF738FD08211348F4
:103AA000FDF793FD1148C06B039001A90F48FDF786
:103AB00099FD08210D48FDF7E5FD01210B48FDF7B3
:103AC00051FC19208DF8000001208DF80100022022
:103AD0008DF8020001208DF803006846FCF7B4FF62
:103AE0000BB030BD00180240001002400000014041
:103AF0002DE9F05F06460F46154698463048B0FB64
:103B0000F6F9B0FBF7FA4C464FF00A0BB8F1000F8C
:103B100004D004212B48FCF712FE03E004212948BD
:103B2000FCF70BFE21462848FDF7FFFD61082648FB
:103B3000FDF701FE00212448FDF7FBFD012122488D
:103B4000FDF722FC01212048FDF72AFC37E01F4841
:103B50000078002833D000201C490870544502D852
:103B60000DB16D1E2BE054450BD955B1A4EB0B04E0
:103B700021461548FDF7D9FD61081348FDF7DBFD27
:103B80001DE05DB94C4509D85C4421460E48FDF75F
:103B9000CCFD61080C48FDF7CEFD10E000210A487D
:103BA000FDF7C9FD00210848FDF7EEFB002106489E
:103BB000FDF7F6FB002005490870BDE8F09FC6E759
:103BC00040420F0000180240000001403B0000206E
:103BD0002DE9F05F06460F46154698463048B0FB83
:103BE000F6F9B0FBF7FA4C464FF00A0BB8F1000FAC
:103BF00004D010212B48FCF7A2FD03E01021294836
:103C0000FCF79BFD21462848FDF78FFD61082648FB
:103C1000FDF78FFD00212448FDF78DFD012122488D
:103C2000FDF7B2FB01212048FDF7BAFB37E01F4842
:103C30000078002833D000201C490870544502D871
:103C40000DB16D1E2BE054450BD955B1A4EB0B04FF
:103C500021461548FDF769FD61081348FDF769FD28
:103C60001DE05DB94C4509D85C4421460E48FDF77E
:103C70005CFD61080C48FDF75CFD10E000210A487E
:103C8000FDF757FD00210848FDF77EFB002106489F
:103C9000FDF786FB002005490870BDE8F09FC6E7E8
:103CA00040420F0000180240000001403B0000208D
:103CB00010B50446200906287CD2DFE800F07B031B
:103CC0001E39445F01234FF45C724FF47A6148104F
:103CD000FFF70EFFFFF740FEFEF7BAFB40F2DC50A5
:103CE000FEF7E4FBFEF7BCFB00234FF45C724FF4DD
:103CF0007A614810FFF7FCFE5DE001234FF4D772B4
:103D00004FF47A614810FFF7F3FEFFF725FEFEF748
:103D10009FFB40F2DC50FEF7C9FBFEF7A1FB00233E
:103D20004FF4D7724FF47A614810FFF7E1FE42E09A
:103D3000FFF712FEFEF78CFB40F2DC50FEF7B6FBFD
:103D4000FEF78EFB37E000234FF4CD724FF47A611B
:103D50004810FFF7CDFEFFF7FFFDFEF779FB40F2BD
:103D6000DC50FEF7A3FBFEF77BFB01234FF4CD7283
:103D70004FF47A614810FFF7BBFE1CE0002340F2CD
:103D800066324FF47A614810FFF7B2FEFFF7E4FDA8
:103D9000FEF75EFB40F2DC50FEF788FBFEF760FBAF
:103DA000012340F266324FF47A614810FFF7A0FE1B
:103DB00001E0FFE700BF00BF04F00F00022804D0BD
:103DC000032821D004285DD13DE001234FF47A720D
:103DD00042F2283140F6C410FFF7FAFE4FF4FA70B1
:103DE000FEF764FBFEF734FB41F27C50FEF75EFB0E
:103DF000FEF736FB00234FF47A7242F2283140F688
:103E0000C410FFF7E5FE3DE0002341F6902242F2A8
:103E1000283140F6C410FFF7DBFE4FF4FA70FEF7CE
:103E200045FBFEF715FB41F27C50FEF73FFBFEF72A
:103E300017FB012341F6902242F2283140F6C410CC
:103E4000FFF7C6FE1EE0002343F6D01242F22831EF
:103E500040F6C410FFF7BCFE4FF4FA70FEF726FBE5
:103E6000FEF7F6FA41F27C50FEF720FBFEF7F8FA77
:103E7000012343F6D01242F2283140F6C410FFF776
:103E8000A7FE00BF00BF10BD491058BFC1F140419F
:103E90005B1058BFC3F140438B42EFF30080704783
:103EA000B0FA80F310FA03F10AD0C3F11D0303F551
:103EB00080634FEA41504FEA035202EBD121704731
:103EC0004FF000007047000051EA030C17D41CF5B6
:103ED000801F58BFBCF5801F00F10680994218BFB3
:103EE000704708BF9042704707D711F5801F58BF31
:103EF00013F5801F19D499427047894270471CF509
:103F0000801F08D5BCF5801FF7D58B4218BF7047BE
:103F100008BF824270474FF4001C1CEB410F38BFB2
:103F20001CEB430F01D28B42704770B500F0B2F822
:103F3000922449004FF000514FF08053FFF7A4BF87
:103F4000DFF848C170B51CEA111E1EBF1CEA13152C
:103F50009EEA0C0F95EA0C0F00F06F8081EA0304D3
:103F600023EA4C134EEAD47E21EA4C1141F480112D
:103F700043F48013AE44A1FB024CA0FB0365AEF1F9
:103F80007F7E361955EB0C05A1FB034C4CF1000369
:103F9000A0FB021C16EB0C06654153F1000309421D
:103FA00018BF46F0010613F4007F0BD14FEA03312E
:103FB0004FEA0530340341EA155140EA16506FF0DC
:103FC00003020AE04FEAC3214FEAC520F40241EAA6
:103FD000555140EA56506FF0020202EB2E4201EBBF
:103FE000025585EACE710AD05FEA440C18BF24F06E
:103FF000004450F1000041F1000120EAD47040F289
:10400000FE7C624500D270BDA84214BF4FF08044D0
:104010004FF04044002E08BF0024BEF1806FA8BFBF
:10402000A1F1C041BDE8704080F282804FF00000F5
:1040300001F1C04101F0004170479EEA0C0F0CEA0B
:10404000131518BF95EA0C0F06D04FF0000081EA57
:10405000030E0EF0004170BD00F01CF88900013E17
:1040600000F007B800F009B84FEA430C5FEA5C5C67
:1040700008D081EA030100F05BB84FEA410C5FEA27
:104080005C5CF6D14FF00000014970470000FF076B
:104090000000F87F0EF1020E2EF0030E5EF8046BA6
:1040A000364205D4012A43EB030515F5001F12D84B
:1040B000012841EB010C1CF5001F0CD80ED14FEA72
:1040C000D17C15F5001F0CEB4C0C0CF1020C08BF59
:1040D0004CEBD37C04E04FF0080C01E04FEAD37CBA
:1040E0000CEB4C0526FA05F606F00706B6F1040CB3
:1040F00006D20EEB860CBDE870404CF0010C604718
:10410000DFE80CF0090B02024FF000414FF0000015
:10411000A1F5002170BD19461046012851EB01049C
:1041200018BFD4F5001484BF002001F0004170BD19
:104130000808A0F500114FEA3101704753EA010C5D
:1041400017D41CF5801F58BFBCF5801F00F10680F6
:104150008B4218BF704708BF8242704707D713F5DC
:10416000801F58BF11F5801F19D48B4270479B42A6
:1041700070471CF5801F08D5BCF5801FF7D5994204
:1041800018BF704708BF904270474FF4001C1CEBEB
:10419000430F38BF1CEB410F01D2994270470FB457
:1041A0000CBC03BCFFF7C1BE4FF04070E1EE100A3B
:1041B00070470000AABB06000000080131000000A3
:1041C000AABB06000000070103000000AABB05000F
:1041D00000000110AABB1000000005100000000044
:1041E0000000000000000100AABB0600000008015A
:1041F00031000000AABB0600000007010300000018
:10420000AABB050000000110AABB100000000510A9
:104210000000000000000000000001003C42000817
:10422000000000203C000000C401000878420008A3
:104230003C0000201C090000E00100080000000014
:10424000010203040102030406070809000000003C
:10425000000000000000000000000000000000005E
:10426000000000000000000000000000000000004E
:08427000000000000000000046
:040000050800018965
:00000001FF
