:020000040800F2
:100000005009002029020008FD0A000875070008B1
:10001000F90A0008C1050008A1240008000000003A
:10002000000000000000000000000000590D000862
:1000300001060008000000008D0B0008B10E00084A
:10004000430200084302000843020008430200087C
:10005000430200084302000843020008430200086C
:10006000430200084302000843020008430200085C
:10007000430200084302000843020008430200084C
:10008000430200084302000843020008430200083C
:10009000430200084302000843020008430200082C
:1000A0002D110008FD11000843020008430200085A
:1000B000430200082112000843020008430200081E
:1000C00043020008430200084302000843020008FC
:1000D00043020008151F00084302000843020008FD
:1000E00043020008430200084302000843020008DC
:1000F00009140008430200084302000843020008F4
:1001000043020008430200084302000843020008BB
:100110005D190008391C000843020008430200086A
:10012000430200084302000843020008430200089B
:10013000430200084302000843020008430200088B
:10014000430200084302000843020008430200087B
:10015000430200084302000843020008430200086B
:10016000430200084302000843020008430200085B
:10017000430200084302000843020008430200084B
:10018000430200084302000800F002F800F03CF8C7
:100190000AA090E8000C82448344AAF10107DA45E2
:1001A00001D100F031F8AFF2090EBAE80F0013F0F8
:1001B000010F18BFFB1A43F0010318472841000044
:1001C00048410000103A24BF78C878C1FAD85207D5
:1001D00024BF30C830C144BF04680C6070470000C1
:1001E0000023002400250026103A28BF78C1FBD840
:1001F000520728BF30C148BF0B6070471FB504F0DD
:1002000037F81FBD10B510BD00F08CF81146FFF790
:10021000F5FF02F0D7FA00F0AAF803B4FFF7F2FFF7
:1002200003BC02F03FF90000094880470948004735
:10023000FEE7FEE7FEE7FEE7FEE7FEE7FEE7FEE796
:10024000FEE7FEE704480549054A064B70470000F3
:10025000B50E000889010008500300205009002055
:100260005005002050050020704710B5203AC0F01E
:100270000B80B1E81850203AA0E81850B1E81850A7
:10028000A0E81850BFF4F5AF5FEA027C24BFB1E8E4
:100290001850A0E8185044BF18C918C0BDE8104055
:1002A0005FEA827C24BF51F8043B40F8043B08BF5E
:1002B0007047D20728BF31F8023B48BF11F8012B25
:1002C00028BF20F8023B48BF00F8012B70474FF0D1
:1002D000000200B5134694469646203922BFA0E896
:1002E0000C50A0E80C50B1F12001BFF4F7AF0907A2
:1002F00028BFA0E80C5048BF0CC05DF804EB890093
:1003000028BF40F8042B08BF704748BF20F8022BD5
:1003100011F0804F18BF00F8012B704770477047ED
:1003200070477047754600F029F8AE4605006946EB
:10033000534620F00700854618B020B5FFF782FF2E
:10034000BDE820404FF000064FF000074FF00008D6
:100350004FF0000B21F00701AC46ACE8C009ACE857
:10036000C009ACE8C009ACE8C0098D467047044636
:10037000AFF300802046FFF750FF000000487047B1
:10038000EC02002021B1826842F00102826003E0A9
:10039000826822F001028260704700000021084A52
:1003A0001168084A1140D0E900231A4383681A43B0
:1003B000C3681A431143044AC2F80413704700008B
:1003C00004230140E030FCFF002001400146C86CDE
:1003D00080B270470246002013680B400BB1012029
:1003E00000E000207047000030B5024600200023E6
:1003F0005068104C20400D790C6844EA05242043D5
:10040000506090680C4C2040D1E903542C438D6817
:100410002C434D7944EA450420439060D06A20F48F
:1004200070000C7D641EE4B2234340EA0350D062A6
:1004300030BD0000FFFEFFFCFDF7FFC0F0B5044635
:100440000D4600200021092D11DDE068A5F10A0606
:1004500006EB4607072606FA07F18843A5F10A06C8
:1004600006EB460603FA06F10843E0600CE020695B
:1004700005EB4507072606FA07F1884305EB450615
:1004800003FA06F108432061072A0FDA606B561E53
:1004900006EB86071F2606FA07F18843561E06EB71
:1004A000860605FA06F10843606322E00D2A0FDA9A
:1004B000206BD61F06EB86071F2606FA07F1884336
:1004C000D61F06EB860605FA06F10843206310E006
:1004D000E06AA2F10D0606EB86071F2606FA07F171
:1004E0008843A2F10D0606EB860605FA06F10843DD
:1004F000E062F0BD816841F080418160704700009A
:1005000010B5FF21014800F01AF910BD0014024097
:100510001CB50121202000F03BFB4FF480700090BF
:1005200001208DF8040000208DF8060003208DF8CE
:10053000050002208DF807006946084800F092F88F
:100540004FF48071054800F0FAF8642001F0FAFFDA
:100550004FF48071014800F0F0F81CBD0014024017
:1005600010B5A021054800F0EAF85021034800F03A
:10057000E4F80F21014800F0E2F810BD0014024039
:1005800010B5A821054800F0DAF85421034800F01E
:10059000D4F80321014800F0D2F810BD0014024045
:1005A00010B5A421054800F0CAF85821034800F00E
:1005B000C4F80321014800F0C2F810BD0014024045
:1005C00000BFFEE71CB50121202000F0E1FAFF206A
:1005D000009001208DF8040000208DF80600032013
:1005E0008DF8050001208DF807006946034800F0EA
:1005F00039F8FF21014800F0A2F81CBD00140240A8
:100600007047000010B55021054800F098F8A0216F
:10061000034800F092F80F21014800F090F810BD57
:100620000014024010B55121054800F088F8A221BD
:10063000034800F082F80C21014800F080F810BD5A
:100640000014024010B55221054800F078F8A121AD
:10065000034800F072F80C21014800F070F810BD5A
:1006600000140240F0B50A4600210023002400BF18
:100670003DE0012505FA01F3156805EA03049C42F3
:1006800034D105684F000326BE40B5430560157997
:100690004E00B5400668354305601579012D02D03E
:1006A0001579022D16D185684F000326BE40B5434B
:1006B000856055794E00B54086683543856045684C
:1006C00001268E40B5434560456896798E40B6B2A6
:1006D00035434560C5684F000326BE40B543C5603D
:1006E000D5794E00B540C6683543C560491C102910
:1006F000BFD3F0BDF0B5002300244D07ED0E02FA84
:1007000005F3CE1000F1200555F826504E07F70EE0
:100710000F26BE40B543CF1000F1200646F8275003
:10072000CE1000F1200555F8265045EA0304CE10FE
:1007300000F1200545F82640F0BD41837047018354
:100740007047000010B504460423012221460848E2
:10075000FFF774FE0648FFF7CDFE00BF02210448F4
:10076000FFF738FE0028F9D00148FFF72FFE10BD33
:100770000020014000BFFEE74CF6CC400149086074
:1007800070470000003000402DE9FF4141F28737FB
:1007900044F29F14042549F640460121802000F0D0
:1007A00007FA0297ADF804400020ADF80600ADF856
:1007B0000C0001A9144801F053F801221146124817
:1007C00000F0ADFE0121104800F040FE2C208DF815
:1007D000000000208DF801008DF8020001208DF846
:1007E0000300684600F08CF945F2555000F022F8FD
:1007F000284600F013F8304600F016F800F006F82E
:10080000FFF7BAFFBDE8FF81001C00404AF6AA20AE
:10081000014908607047000000300040014948600D
:1008200070470000003000400149886070470000B8
:10083000003000400149086070470000003000406F
:1008400000B58DB00121084600F0A2F90121022077
:1008500000F09EF90121042000F09AF901212020E6
:1008600000F096F90121402000F092F901210802E0
:1008700000F0AEF94FF4E0600B9001208DF83000ED
:1008800002208DF833000BA93D48FFF7EBFE0F2047
:100890000B900BA93B48FFF7E5FE02200B900BA93C
:1008A0003948FFF7DFFE06200B900BA93748FFF70A
:1008B000D9FE4FF478400B900BA93148FFF7D2FED8
:1008C00001200B900BA93248FFF7CCFE4FF4E061FA
:1008D0002B48FFF732FF0F212A48FFF72EFF022196
:1008E0002948FFF72AFF06212848FFF728FF4FF481
:1008F00078412348FFF723FF01212548FFF71FFF19
:10090000F1200B9003208DF8300000208DF833008B
:100910000BA91D48FFF7A6FE30200B900BA9194824
:10092000FFF7A0FE01200B900BA91848FFF79AFED5
:100930000121080200F05CF900214FF4807000F002
:1009400057F9002007900A9009904FF480300890E2
:1009500007A8FFF723FD002001908DF808008DF80F
:1009600009000390059008208DF8180001A9094896
:10097000FFF73AFD01210748FFF704FD0DB000BD68
:10098000001402400008024000000240000402403F
:1009900000180240002001402DE9F0412DED028BAE
:1009A000074600240325002608E03846FFF7CAFE64
:1009B0000444012001F0C6FD701CC6B2AE42F4DB57
:1009C000B4FBF5F8404603F0D0FA41EC180B9FED6C
:1009D000060B53EC102B03F017FB41EC100BBDEC96
:1009E000028BBDE8F08100006666666666664A3F77
:1009F0002DE9F0412DED028B074600240525002648
:100A000009E03846FFF79EFE04444FF4FA7001F007
:100A1000B5FD701CC6B2AE42F3DBB4FBF5F8404640
:100A200003F0A3FA41EC180B9FED050B53EC102BD0
:100A300003F0EAFA41EC100BBDEC028BBDE8F0814B
:100A40006666666666664A3F1CB50121202000F096
:100A50009FF84FF4C060009001208DF80400002042
:100A60008DF8060003208DF8050001208DF80700A1
:100A700069460848FFF7F6FD4FF4C0610548FFF7E7
:100A80005CFE1E2001F05EFD4FF4C0610148FFF7DF
:100A900056FE1CBD0014024010B505210548FFF7A5
:100AA0004EFE0A210348FFF748FEF0210148FFF7F8
:100AB00046FE10BD0014024010B525210548FFF781
:100AC0003EFE1A210348FFF738FEC0210148FFF718
:100AD00036FE10BD0014024010B515210548FFF781
:100AE0002EFE2A210348FFF728FEC0210148FFF708
:100AF00026FE10BD0014024000BFFEE77047000054
:100B000070B5002100230F22C4781CB3174C246851
:100B100004F4E064C4F5E064C4F30721C1F1040403
:100B2000E3B20A4144789C40E1B284781440214306
:100B30000C07210E0E4C05786155047804F01F0552
:100B40000124AC4005786D11AD0005F1E025C5F834
:100B5000004109E0047804F01F050124AC40054D74
:100B60000678761145F8264070BD00000CED00E0D7
:100B700000E400E080E100E002490143024A116024
:100B8000704700000000FA050CED00E0704700001F
:100B900029B1064A12680243044B1A6004E0034A72
:100BA00012688243014B1A607047000030380240DF
:100BB00029B1064A12680243044B1A6004E0034A52
:100BC00012688243014B1A607047000040380240AF
:100BD00029B1064A12680243044B1A6004E0034A32
:100BE00012688243014B1A6070470000443802408B
:100BF00029B1064A12680243044B1A6004E0034A12
:100C000012688243014B1A6070470000243802408A
:100C1000F0B5002100220024022500260223324FD5
:100C20003F6807F00C0121B1042905D0082937D10C
:100C300005E02E4F076036E02D4F076033E02A4F66
:100C40003F1F3F68C7F38056274F3F1F3F6807F09D
:100C50003F036EB1264FB7FBF3F7DFF88CC0ACF162
:100C6000040CDCF800C0CCF3881C07FB0CF40CE08F
:100C70001E4FB7FBF3F7DFF870C0ACF1040CDCF8E3
:100C800000C0CCF3881C07FB0CF4174F3F1F3F68D4
:100C9000C7F301477F1C7D00B4FBF5F7076002E056
:100CA000124F076000BF00BF0F4F3F6807F0F00111
:100CB0000909104F7A5C0768D74047600A4F3F68C0
:100CC00007F4E051890A0B4F7A5C4768D740876088
:100CD000054F3F6807F46041490B064F7A5C47684F
:100CE000D740C760F0BD0000083802400024F4007F
:100CF00000127A000000002010B50A210548FFF715
:100D00001EFD05210348FFF718FDF0210148FFF7FC
:100D100016FD10BD0014024010B54A210548FFF72A
:100D20000EFD85210348FFF708FD30210148FFF73C
:100D300006FD10BD0014024010B58A210548FFF7DA
:100D4000FEFC45210348FFF7F8FC30210148FFF77E
:100D5000F6FC10BD00140240704700000CB50020E6
:100D6000019000903448006840F4803032490860B7
:100D700000BF3148006800F4003000900198401C2A
:100D80000190009818B90198B0F5A04FF1D12A4808
:100D9000006800F4003010B10120009001E0002054
:100DA00000900098012846D123484030006840F068
:100DB00080502149403108602048006840F440409C
:100DC0001E4908601C48083000681B49083108604B
:100DD0000846006840F4004008600846006840F497
:100DE000A05008601648091F0860081F006840F0FE
:100DF0008070091F086000BF0F48006800F0007095
:100E00000028F9D040F205700E4908600A48083001
:100E1000006820F0030008490831086008460068AF
:100E200040F00200086000BF03480830006800F08E
:100E30000C000828F8D10CBD0038024000700040BA
:100E400008544007003C024010B509210548FFF74F
:100E500076FC06210348FFF770FCF0210148FFF7FC
:100E60006EFC10BD0014024010B506210548FFF7C6
:100E700066FC09210348FFF760FCF0210148FFF7F9
:100E80005EFC10BD00140240042808D14FF0E021A0
:100E9000096941F004014FF0E022116107E04FF0D1
:100EA000E021096921F004014FF0E022116170474F
:100EB0007047000010B51548006840F470001349F1
:100EC00008601348006840F00100114908600020E4
:100ED0000F49083108600E4800680E4908400C4967
:100EE00008600D48091D0860081F006820F4802074
:100EF000091F0860002006490C310860FFF72EFF2B
:100F00004FF0006001498039086010BD88ED00E0B5
:100F100000380240FFFFF6FE1030002410B54FF4F9
:100F2000A060FFF729FEA82001F0EEFAFFF72CFCE5
:100F3000FFF78AFDFFF7ECFA4FF4E13002F0C2FE52
:100F4000FFF740FB01F0FAF8FFF77AFC532140F27B
:100F5000E73000F0CDF9532144F61F6000F098F817
:100F600002F066FC02F034FD01F0A0FA10BDF0B50D
:100F70000C46154600210022068C4FF6FE773E40B7
:100F80000684018B028C4FF60C7631407E1C06EAFB
:100F900003162E4331434FF6F576324044F00106F6
:100FA000324301830284F0BDF0B50C4615460021A2
:100FB00000220026078C4FF6EF7C07EA0C07078417
:100FC000018B028C4FF6FF7707EA041640F6FF47C5
:100FD00039404FF6FF7707EA033739434FF6FF777B
:100FE00007EA052739434FF65F773A4046F0100786
:100FF0003A4301830284F0BDF0B50C46154600214A
:1010000000220026078C4FF6FF6C07EA0C070784C6
:10101000818B028C4FF6FF7707EA04264FF60C7798
:1010200039404FF6FF7707EA03172F4339434FF252
:10103000FF573A4046F480773A4381830284F0BDFB
:10104000F0B50C461546002100220026078C4EF60E
:10105000FF7C07EA0C070784818B028C4FF6FF7731
:1010600007EA043640F6FF4739404FF6FF7707EAB4
:10107000052739434FF6FF7707EA0337394345F62B
:10108000FF773A4046F480573A4381830284F0BDAB
:1010900030B58BB004460D4601214020FFF788FD96
:1010A00001210220FFF774FD09220F211D48FFF7DF
:1010B00021FB02208DF828008DF8290000208DF8F2
:1010C0002A0001208DF82B00C003099009A91548BA
:1010D000FFF7C8FAA8B2ADF818000020ADF81A0062
:1010E0000794ADF8200006A90F4800F0B9FB702066
:1010F000ADF804000120ADF806000220ADF81000A4
:1011000001A9094800F064FA0821074800F0BFFA75
:101110000121054800F088F90121034800F096F903
:101120000BB030BD000402400018004010B530483C
:10113000007800F08000002854D101212D4800F0F3
:10114000A6F9D0B12A48007800F04000A8B128489C
:10115000007800F03F003F280AD12548007840F091
:101160008000234908704FF6FF702349088004E08F
:101170001F480078401C1E49087002211D4800F0DD
:1011800086F978B31A48007800F0400078B1184822
:10119000007840F0800016490870164800F071F998
:1011A000154908800021134800F000FA1AE00020D9
:1011B0000F490870104908800D48007840F0400041
:1011C0000B49087000210B4800F040F90021094844
:1011D00000F017FB0221074800F0E8F9012105485B
:1011E00000F034F90321034800F02DF910BD000090
:1011F0001A000020004001401C00002010B5012111
:10120000054800F044F9012801D104490870012182
:10121000014800F018F910BD000001403300002023
:1012200010B53048007800F08000002854D101212A
:101230002D4800F02CF9D0B12A48007800F0400089
:10124000A8B12848007800F03F003F280AD125487F
:10125000007840F08000234908704FF6FF70234962
:10126000088004E01F480078401C1E4908700421D3
:101270001D4800F00CF978B31A48007800F04000DF
:1012800078B11848007840F0800016490870164878
:1012900000F0FAF8154908800021134800F0EAF937
:1012A0001AE000200F490870104908800D480078A6
:1012B00040F040000B49087000210B4800F0C6F8D0
:1012C0000021094800F09DFA0221074800F0D2F9F8
:1012D0000121054800F0BAF80521034800F0B3F8F1
:1012E00010BD00001E00002000040040200000206F
:1012F00030B58BB004460D4601210420FFF758FCA1
:1013000001210820FFF744FC02220C213C48FFF792
:10131000F1F902220D213A48FFF7ECF902220E21E1
:101320003748FFF7E7F902220F213548FFF7E2F9C6
:1013300002208DF8280003208DF8290000208DF868
:101340002A0001208DF82B004FF47040099009A964
:101350002B48FFF787F9A8B2ADF818000020ADF8C8
:101360001A000794ADF8200006A9264800F078FA84
:101370007020ADF804000120ADF806000220ADF8A1
:101380001000204834300068039001A91D4800F087
:10139000CFF808211B4800F012F91A4838300068CD
:1013A000039001A9174800F013F90821154800F02F
:1013B0006EF914483C300068039001A9114800F010
:1013C00073F908210F4800F0BFF90E48403000685B
:1013D000039001A90B4800F0C1F90821094800F069
:1013E000F9F90121074800F01FF80121054800F034
:1013F0002DF80121034800F035F80BB030BD000096
:10140000000C02400008004010B50121054800F022
:101410003EF8012801D1FFF7F9F90121014800F058
:1014200012F810BD001C004021B1028842F0800279
:10143000028004E002884FF67F731A4002807047F2
:10144000CA4302827047CA430282704721B10288B0
:1014500042F00102028004E002884FF6FE731A4057
:101460000280704731B1B0F8442042F40042A0F845
:10147000442005E0B0F84420C2F30E02A0F8442056
:1014800070470146486B70470146886B704730B51E
:101490000246002000230024158A05EA01039589ED
:1014A00005EA010413B10CB1012000E0002030BDB9
:1014B00070B505460C46208850B92389A2886188FA
:1014C0002846FFF754FDE188284600F09CF925E006
:1014D000208804280AD12389A28861882846FFF73A
:1014E00063FDE188284600F097F917E02088082876
:1014F0000AD12389A28861882846FFF77DFDE1880B
:10150000284600F096F909E02389A28861882846D8
:10151000FFF796FDE188284600F094F970BD1AB1F6
:1015200083890B43838102E083898B4383817047E6
:1015300070B5002400220023058C4FF6FE7635405E
:101540000584028C8388048B4FF68F752C40B51E62
:101550002C400D882C43751E2A408D892A434D88C6
:101560002A43104DA84202D00F4DA84213D14FF686
:10157000F7752A40CD892A434FF6FB752A408D889E
:101580002A434FF6FF652B404FF6FF552B400D8A3F
:101590002B434D8A2B43838004838D6845630284EB
:1015A00070BD000000000140000401400A46002117
:1015B000018C4FF6FD7319401143018470470A46B0
:1015C0000021018B4FF6F7731940114301837047D7
:1015D00070B5002400220023058C4FF6EF763540CD
:1015E0000584028C8388048B48F6FF752C404FF6E7
:1015F000FF452C400D884FF6FF7606EA05252C4363
:101600004FF6DF752A408D8906EA05152A434D8875
:1016100006EA05152A43154DA84202D0144DA842EA
:101620001DD14FF67F752A40CD894FF6FF7606EA29
:1016300005152A434FF6BF752A408D8806EA051521
:101640002A434FF6FF352B404FF2FF752B400D8A92
:1016500006EA85052B434D8A06EA85052B438380E0
:1016600004838D688563028470BD00000000014022
:10167000000401400A460021018C4FF6DF73194037
:101680004FF6FF7303EA02131943018470470A46B9
:101690000021018B4FF2FF7319404FF6FF7303EAED
:1016A000022319430183704770B5002400220023F0
:1016B000058C4FF6FF6635400584028C8388848B49
:1016C0004FF68F752C404FF6FC752C400D882C433F
:1016D0004FF6FF552A408D894FF6FF7606EA05251D
:1016E0002A434D8806EA05252A43154DA84202D013
:1016F000144DA8421DD14FF2FF752A40CD894FF6F7
:10170000FF7606EA05252A434FF6FF352A408D88E5
:1017100006EA05252A434EF6FF752B404DF6FF7568
:101720002B400D8A06EA05152B434D8A06EA05155E
:101730002B43838084838D68C563028470BD000061
:1017400000000140000401400A460021818B4FF651
:10175000F7731940114381837047000070B5002270
:1017600000230024058C4EF6FF7635400584038C5B
:101770008488828B48F6FF752A404FF6FF452A4041
:101780000D884FF6FF7606EA05252A434DF6FF75CC
:101790002B408D8906EA05352B434D8806EA053531
:1017A0002B430A4DA84202D0094DA84208D14BF65E
:1017B000FF752C400D8A4FF6FF7606EA85152C43FF
:1017C000848082838D680564038470BD00000140BD
:1017D000000401400A460021818B4FF2FF7319403B
:1017E0004FF6FF7303EA0223194381837047C162F6
:1017F00070474163704781637047C16370470164FC
:10180000704741627047028B4FF6F3731A400283B0
:10181000028B0A4302837047028B4FF2FF331A4058
:101820000283028B4FF6FF7303EA01231A430283FC
:101830007047828B4FF6F3731A408283828B0A4380
:1018400082837047828B4FF2FF331A408283828BF0
:101850004FF6FF7303EA01231A43828370470000A7
:1018600000220288184B98420ED0184B98420BD099
:10187000B0F1804F08D0164B984205D0154B9842D6
:1018800002D0154B984204D14FF68F731A404B8803
:101890001A43124B984207D0114B984204D04FF68E
:1018A000FF431A400B891A4302804B68C3620B88BE
:1018B0000385054B984202D0044B984201D18B7AA4
:1018C0000386012383827047000001400004014029
:1018D0000004004000080040000C004000100040E0
:1018E0000014004010B52DED028B04462046FFF792
:1018F00053F8B0EE408AF0EE608A9FED070B53EC90
:10190000102B51EC180B02F07DFC03D20120BDEC32
:10191000028B10BD0020FAE700000000000000402C
:1019200010B52DED028B04462046FFF761F8B0EEAE
:10193000408AF0EE608A9FED070B53EC102B51ECC0
:10194000180B02F05FFC03D20120BDEC028B10BD2E
:101950000020FAE7000000000000004070B540F2EF
:1019600025513C4800F026FB002872D0394800F091
:10197000DBFBC4B2AA2C17D13748008840F4804062
:10198000354908800846008800F40040002860D0EF
:1019900008460088C0F30D0030490C542E480088DA
:1019A000401C2D49088054E02B48008800F48040FA
:1019B00070B1BB2C04D14FF400402749088048E0A7
:1019C000254800884BF6FF7108402349088040E015
:1019D0002148008800F40040D8B31F480088C0F3B5
:1019E0000D001E490C541C480088401C1A490880F0
:1019F0001A480078801C0988C1F30D01884228DC50
:101A000015480088C0F30D00082822DB13488079B0
:101A1000F8B91248807811494870032507E00F484B
:101A200040780E49495D48400C4948706D1C0B4890
:101A30000078A842F3DA0948417807480088C0F3E3
:101A40000D00401E054A105C814202D1012004496C
:101A5000086070BD004C00402400002010010020F0
:101A600028000020F0B5B3B005460E461746082DF5
:101A70002BD1012E29D1BC2104A8FEF728FC6C4AE9
:101A800007CA01AB07C39DF808008DF80D000524B7
:101A900007E09DF80D0001A9095D48408DF80D0093
:101AA000641C082CF5DD00240CE001A8015D6148F0
:101AB00000F03FFB00BF5F48008800F040000028B6
:101AC000F9D0641C092CF0DD00BF072D2CD1012EAC
:101AD0002AD1BC2104A8FEF7FAFB554A0C3207CAEA
:101AE00001AB07C39DF808008DF80D00052407E041
:101AF0009DF80D0001A9095D48408DF80D00641C9A
:101B0000082CF5DD00240CE001A8015D494800F037
:101B100010FB00BF4748008800F040000028F9D0C3
:101B2000641C092CF0DD00BF012D2CD1102E2AD110
:101B3000C02103A8FEF7CBFB3D49183103C9CDE90D
:101B400001019DF808008DF80C00052407E09DF8C0
:101B50000C0001A9095D48408DF80C00641C072C9D
:101B6000F5DD00240CE001A8015D324800F0E1FA47
:101B700000BF3048008800F040000028F9D0641C05
:101B8000082CF0DD00BF052D4FD1102E4DD1B42112
:101B900006A8FEF79CFB14222549203101A8FEF778
:101BA00064FB082404E0387801A908557F1C641CF4
:101BB000102CF8DD9DF808008DF8170005240FE0C3
:101BC00001A8005DAA2803D19DF817008DF8170021
:101BD0009DF8170001A9095D48408DF81700641CA5
:101BE000122CEDDD00241DE001A8015D114800F07C
:101BF000A0FA00BF0F48008800F040000028F9D08C
:101C0000022C0EDB01A8005DAA280AD10021094898
:101C100000F08FFA00BF0748008800F0400000285D
:101C2000F9D0641C132CDFDD00BF33B0F0BD000021
:101C30007C420008004C004070B540F225513C4801
:101C400000F0B8F9002872D0394800F06DFAC4B23B
:101C5000AA2C17D13748008840F4804035490880C5
:101C60000846008800F40040002860D0084600883C
:101C7000C0F30D0030490C542E480088401C2D49FB
:101C8000088054E02B48008800F4804070B1BB2CE1
:101C900004D14FF400402749088048E025480088D7
:101CA0004BF6FF7108402349088040E02148008836
:101CB00000F40040D8B31F480088C0F30D001E494F
:101CC0000C541C480088401C1A4908801A480078A7
:101CD000801C0988C1F30D01884228DC1548008862
:101CE000C0F30D00082822DB13488079F8B91248A8
:101CF000807811494870032507E00F4840780E4965
:101D0000495D48400C4948706D1C0B480078A8425A
:101D1000F3DA0948417807480088C0F30D00401EF7
:101D2000054A105C814202D101200449086070BD5F
:101D30000050004026000020D80100202C00002088
:101D4000F0B5B3B005460E461746082D2BD1012E2F
:101D500029D1BC2104A8FEF7BAFA6C4A07CA01AB24
:101D600007C39DF808008DF80D00052407E09DF8D5
:101D70000D0001A9095D48408DF80D00641C082C78
:101D8000F5DD00240CE001A8015D614800F0D1F907
:101D900000BF5F48008800F040000028F9D0641CB4
:101DA000092CF0DD00BF072D2CD1012E2AD1BC213A
:101DB00004A8FEF78CFA554A0C3207CA01AB07C3D8
:101DC0009DF808008DF80D00052407E09DF80D0032
:101DD00001A9095D48408DF80D00641C082CF5DD53
:101DE00000240CE001A8015D494800F0A2F900BF01
:101DF0004748008800F040000028F9D0641C092CF6
:101E0000F0DD00BF012D2CD1102E2AD1C02103A856
:101E1000FEF75DFA3D49183103C9CDE901019DF88E
:101E200008008DF80C00052407E09DF80C0001A9BE
:101E3000095D48408DF80C00641C072CF5DD00247A
:101E40000CE001A8015D324800F073F900BF304892
:101E5000008800F040000028F9D0641C082CF0DD58
:101E600000BF052D4FD1102E4DD1B42106A8FEF78D
:101E70002EFA14222549203101A8FEF7F6F908248C
:101E800004E0387801A908557F1C641C102CF8DD8B
:101E90009DF808008DF8170005240FE001A8005DEB
:101EA000AA2803D19DF817008DF817009DF8170098
:101EB00001A9095D48408DF81700641C122CEDDD66
:101EC00000241DE001A8015D114800F032F900BFB7
:101ED0000F48008800F040000028F9D0022C0EDBEB
:101EE00001A8005DAA280AD10021094800F021F9C3
:101EF00000BF0748008800F040000028F9D0641CAB
:101F0000132CDFDD00BF33B0F0BD0000B04200088D
:101F10000050004010B540F225511D4800F04AF82D
:101F200010B31B4800F000F9C4B21A48008800F44E
:101F30000040C8B91748008800F4804060B10A2CFE
:101F400003D000201349088020E01248008840F4A4
:101F500000401049088019E00D2C06D10D4800887A
:101F600040F480400B49088010E00A480088C0F324
:101F70000D0009490C5407480088401C0549088099
:101F800008460088C72801DD0020088010BD000039
:101F900000100140180000203400002021B1828987
:101FA00042F40052828104E082894DF6FF731A40A8
:101FB0008281704770B5024600240023002500206E
:101FC00040F66A16B14200D100BFC1F3421501F0DC
:101FD0001F03012606FA03F3012D02D1968933402F
:101FE00006E0022D02D1168A334001E0968A334082
:101FF0000C12012606FA04F41688344013B10CB111
:10200000012000E0002070BDF0B50346002400264A
:102010000025002040F66A17B94200D100BF1846DB
:10202000C1F3421401F01F06012707FA06F5012C3F
:1020300001D10C3004E0022C01D1103000E014304A
:102040001AB107682F43076002E00768AF430760D3
:10205000F0BD00002DE9FF4705460E460024A146CD
:1020600000BFA046B08900B100BF2C8A24F44054C0
:10207000F08804432C82AC8941F20C608443B08820
:1020800031890843718908430443AC81AC8A24F444
:102090004074B0890443AC826846FEF7B9FD20481D
:1020A000854202D01F48854202D1DDF80C9001E044
:1020B000DDF80890A88900F4004040B109EBC900A0
:1020C00000EB091031684900B0FBF1F707E009EBBC
:1020D000C90000EB091031688900B0FBF1F76420FA
:1020E000B7FBF0F004012009642101FB1078A889F6
:1020F00000F4004040B1322000EBC800B0FBF1F02A
:1021000000F00700044308E0322000EB08106421CF
:10211000B0FBF1F000F00F0004432C81BDE8FF8715
:10212000001001400014014001468888C0F30800F7
:102130007047C1F3080282807047000070B586B016
:102140004FF6FF745325A72601211020FEF720FD2E
:1021500001210804FEF73CFD01210220FEF728FDC5
:1021600001210420FEF714FD01210220FEF710FDDD
:102170000A20049001208DF8140000208DF816002C
:1021800003208DF8150001208DF8170004A95E4882
:10219000FEF768FA4FF40050049004A95B48FEF77C
:1021A00061FA08215848FEF7C8FA02215648FEF79E
:1021B000C6FA4FF400515548FEF7BFFA4FF42270AB
:1021C000049004A95248FEF74DFA08215048FEF742
:1021D000B4FA4FF400714E48FEF7B1FA80214C4832
:1021E000FEF7ABFA2020049002208DF814000320A3
:1021F0008DF8150000208DF8160002208DF81700CC
:1022000004A94148FEF72EFA032205213E48FEF7B5
:1022100071FAADF804600020ADF806000294ADF844
:102220000C0001A93B48FFF71BFB00203A4908803E
:102230004880012088800020C88008813548FFF749
:1022400037F9012203213348FFF769F901213148A9
:10225000FFF7FCF818208DF8000002208DF801002F
:1022600000208DF8020001208DF803006846FEF77B
:1022700047FC2020049002208DF8140003208DF8E4
:10228000150000208DF8160002208DF8170004A913
:102290001F48FEF7E7F9022205211D48FEF72AFA3A
:1022A000ADF804500020ADF806000294ADF80C0023
:1022B00001A91A48FFF7D4FA042019490880002020
:1022C0004880012088800020C88008811348FFF7DB
:1022D000EFF8012205211148FFF721F901210F48EC
:1022E000FFF7B4F81D208DF8000002208DF80100E2
:1022F00000208DF8020001208DF803006846FEF7EB
:10230000FFFB06B070BD0000001002400008024054
:102310000004024000400140FC0000200004004096
:10232000060100202DE9F04700210C460D4600BFB4
:102330004FF00A084FF448715248FFF75AFA4FF429
:1023400048715048FFF757FA4FF448714D48FFF76E
:1023500054FA4FF448714B48FFF751FA90E00821C6
:102360004948FEF7ECF980214848FEF7E8F90A20D1
:1023700000F004F908214448FEF7DFF980214348C2
:10238000FEF7DBF94248007800F08000C0B1404819
:10239000007800F03F00C51704464FF6FF72002199
:1023A0002046A0FB02C905FB029204FB01256446FE
:1023B00038480088241845F1000500203449087089
:1023C0003548007800F08000002856D03248007868
:1023D00000F03F00C71706464FF6FF714FF0000CA4
:1023E0003346A3FB010907FB019106FB0C170646C8
:1023F0002A490988761847F10007B8F1000F12D171
:102400004FF42F710020091BA84105DA4FF42F71FA
:102410000020891BB84103DBFEF772F8BDE8F087A6
:10242000FEF7F0F826E0B8F1010F02DDA8F101088F
:1024300020E0A21B65EB07000021D2F106028141DA
:102440000FDB321B67EB05000021D2F10602814150
:1024500007DB4FF00008FEF753F80A2000F072F88F
:1024600008E0A01B75EB070002DAFEF7EDFC01E0C7
:10247000FEF7FAFC002008490870142000F062F80A
:102480006DE7000000080040001002400004024018
:102490001A0000201C0000201E0000202000002048
:1024A00000BFFEE7014600BF704700001CB50121D8
:1024B0004020FEF76DFBC020009001208DF8040045
:1024C00000208DF8060003208DF8050001208DF80E
:1024D000070069460348FEF7C5F8C0210148FEF72A
:1024E0002EF91CBD0018024010B540210148FEF72E
:1024F00024F910BD0018024010B540210148FEF734
:102500001EF910BD0018024010B504466FF004001B
:10251000FEF7BAFCE11704EB5171C1F3C701074A9A
:1025200011701046007800EB4001C1EBC0104FF66F
:10253000FF7101EAC0000249088010BD10000020B0
:102540001200002070B504464FF4077094FBF0F0C1
:10255000C6B24FF4077094FBF0F100FB114085B256
:1025600005E04FF4077000F02FF8701EC6B2002E81
:10257000F7D115B1284600F027F870BD0146114A81
:1025800012784A434FF0E0235A6100229A611A46BA
:10259000126942F001021A6100BF4FF0E022106997
:1025A00000F001021AB100F48032002AF5D04FF099
:1025B000E022126922F001024FF0E0231A610022AA
:1025C0009A617047100000200146114A12884A4360
:1025D0004FF0E0235A6100229A611A46126942F0D4
:1025E00001021A6100BF4FF0E022106900F0010201
:1025F0001AB100F48032002AF5D04FF0E0221269BF
:1026000022F001024FF0E0231A6100229A61704724
:102610001200002010B50020002121E001EB810212
:1026200002EBC102664B1A44527A012A07D10228F2
:1026300001D0032801D1032011E001200FE001EBBC
:10264000810202EBC1025E4B1A44527A022A06D181
:10265000012801D0032801D1032000E00220491CF9
:102660000529DBDB0021A6E001EB810202EBC102C0
:10267000534B1A44527A012A33D101EB810202EB07
:10268000C1021A44D27A012A06D0022A0DD0032AA6
:1026900014D0042A24D11AE0052201EB810303EBB4
:1026A000C103474C23441A731AE0062201EB81034D
:1026B00003EBC103424C23441A7311E0072201EBE0
:1026C000810303EBC1033E4C23441A7308E0082244
:1026D00001EB810303EBC103394C23441A7300BFA0
:1026E00068E001EB810202EBC102354B1A44527AD9
:1026F000022A5FD101EB810202EBC1021A44D27AB5
:10270000012A06D0022A18D0032A2AD0042A50D13E
:102710003BE0022808D1002201EB810303EBC10357
:10272000274C23441A7344E0012201EB810303EB9D
:10273000C103234C23441A733BE0022808D1012231
:1027400001EB810303EBC1031D4C23441A7330E0FA
:10275000022201EB810303EBC103194C23441A73DA
:1027600027E0022808D1022201EB810303EBC10319
:10277000134C23441A731CE0032201EB810303EB87
:10278000C1030F4C23441A7313E0022808D103221B
:1027900001EB810303EBC103094C23441A7308E0E6
:1027A000042201EB810303EBC103054C23441A739C
:1027B00000BF00BF491C0529FFF656AF10BD000041
:1027C000A0020020FEF7AAFB00F0D8FE41F28830FC
:1027D000FFF7B8FEFFF71EFF04464FF4617117487C
:1027E000FFF707F84FF461711448FFF704F8FDF79D
:1027F00009FF40F2DC50FFF7A5FE012C02D100F0EA
:1028000021F806E0022C02D100F042FA01E000F0CB
:102810004DFC11E04FF4C0610948FDF78EFF4FF405
:10282000FA70FFF78FFE4FF4C0610548FDF787FF90
:102830004FF4FA70FFF786FEECE700000008004056
:10284000001402402DE9FE4F4FF000080024A1467D
:102850000025A2460026A3460027002002900190F2
:102860000090FDF74DFE09E2029830B101287DD0BD
:10287000022877D0032826D151E10720FFF750F82E
:1028800082460F20FFF74CF88346BAF1000F1BD1A8
:10289000BBF1000F18D0019840B9FDF7B3FE4FF41B
:1028A000FA60FFF74FFE012001900DE00320029037
:1028B000FDF756FE9620FFF745FEFEF71DFA40F2A3
:1028C0002620FFF73FFED8E14FF46171EC48FEF798
:1028D00090FF4FF46171EA48FEF78DFF4FF461718C
:1028E000E748FEF78AFF4FF46171E548FEF787FF7E
:1028F0000420FEF7F7FF04460620FEF7F3FF054627
:102900000E20FEF7EFFF06460820FEF7EBFF074616
:1029100014B90DB906B91FB12CB925B91EB117B13B
:10292000FDF7EEFD21E017B10CB905B93EB117B1C5
:102930000DB104B91EB12EB124B11FB915B9FDF7FF
:1029400081FE12E016B10CB905B93FB116B10DB157
:1029500004B91FB13CB137B12EB925B9FDF762FEFC
:1029600003E003E079E0FDF74DFE86E10720FEF786
:10297000D7FF82460F20FEF7D3FF8346BBF1000F3F
:102980001BD1BAF1000F18D0009840B9FDF7E8FD4F
:102990004FF4FA60FFF7D6FD012000900DE0022011
:1029A0000290FDF72FFE9620FFF7CCFDFEF774F89E
:1029B00040F22620FFF7C6FD5FE14FF46171B04899
:1029C000FEF717FF4FF46171AD48FEF714FF4FF4A7
:1029D0006171AB48FEF711FF4FF46171A848FEF733
:1029E0000EFF0420FEF77EFF04460620FEF77AFF66
:1029F00005460E20FEF776FF06460820FEF772FF1A
:102A0000074614B90DB906B91FB12CB925B91EB1C5
:102A100017B1FDF775FD1FE016B10CB905B93FB14F
:102A200016B10CB105B91FB12DB127B11EB914B93A
:102A3000FDF7B6FD10E017B10CB905B93EB117B1FD
:102A40000CB105B91EB12DB126B11FB914B9FDF7EE
:102A500097FD01E0FDF784FD0FE10020FEF760FF28
:102A600080460520FEF75CFF8146B9F1000F06D1D4
:102A7000B8F1000F03D0FDF743FDBDE8FE8F4FF422
:102A800061717F48FEF7B5FE4FF461717C48FEF737
:102A9000B2FE4FF461717A48FEF7AFFE4FF46171F8
:102AA0007748FEF7ACFE0420FEF71CFF0446062024
:102AB000FEF718FF05460E20FEF714FF0646082015
:102AC000FEF710FF074614B90DB906B91FB12EB9AC
:102AD00027B91CB115B1FDF713FD1FE014B10FB9F3
:102AE00005B93EB114B10FB105B91EB12EB125B172
:102AF0001FB914B9FDF7F0FF10E015B10CB906B914
:102B00003FB117B10DB104B91EB12CB126B11FB937
:102B100015B9FDF7D1FF01E0FDF7BEFFADE000F014
:102B2000E9FD58480078E0B3FEF7E6F8554800782C
:102B3000FF280BD14FF49660FFF704FD00205149A8
:102B4000087051490870514908702AE04FF4FA6042
:102B5000FFF7F8FCFDF7D4FCFFF7E4FB49480078E9
:102B600001F006F94848007818B14748007801F0AC
:102B7000FFF84648007818B14448007801F0F8F8AA
:102B8000FDF7EEFC00BF0620FEF7ACFE0028FAD0F1
:102B9000FDF7B6FC00203B4908703B4908703B49F3
:102BA00008700020FEF7BCFE80460520FEF7B8FE48
:102BB0008146B8F1000F10D1B9F1000F0DD00120FE
:102BC0000290FDF769FF9620FFF7BCFCFDF7C8FCFB
:102BD00040F22620FFF7B6FC4FE04FF46171284821
:102BE000FEF707FE4FF461712548FEF704FE4FF42F
:102BF00061712348FEF701FE4FF461712048FEF732
:102C0000FEFD0420FEF76EFE04460620FEF76AFE77
:102C100005460E20FEF766FE06460820FEF762FE19
:102C2000074614B90DB906B91FB12EB927B91CB1A1
:102C300015B1FDF765FC1FE015B10CB907B93EB140
:102C400016B10DB104B91FB12FB124B11EB915B918
:102C5000FEF772F810E014B10DB906B93FB116B124
:102C60000CB105B91FB12DB127B11EB914B9FEF7CA
:102C700053F801E0FEF740F800BF00BFF4E50000A4
:102C80000008004030000020310000203200002009
:102C90002DE9F84F4FF000080024A1460025A24678
:102CA0000026A346002700200090FDF729FCF3E151
:102CB000009830B1012872D002286FD003281BD1B0
:102CC0003BE10720FEF72CFE82460F20FEF728FE90
:102CD0008346BAF1000F10D1BBF1000F0DD00320D5
:102CE0000090FDF73DFC9620FFF72CFCFEF704F862
:102CF00040F22620FFF726FCCDE14FF46171E74852
:102D0000FEF777FD4FF46171E448FEF774FD4FF470
:102D10006171E248FEF771FD4FF46171DF48FEF723
:102D20006EFD0420FEF7DEFD04460620FEF7DAFD08
:102D300005460E20FEF7D6FD06460820FEF7D2FD1A
:102D4000074614B90DB906B91FB12CB925B91EB182
:102D500017B1FDF7D5FB1FE017B10CB905B93EB1AE
:102D600017B10DB104B91EB12EB124B11FB915B9F7
:102D7000FDF768FC10E016B10CB905B93FB116B10A
:102D80000DB104B91FB12CB127B11EB915B9FDF7AA
:102D900049FC01E0FDF736FC7DE100E06BE0072037
:102DA000FEF7BEFD82460F20FEF7BAFD8346BBF15B
:102DB000000F10D1BAF1000F0DD002200090FDF7E6
:102DC00021FC9620FFF7BEFBFDF766FE40F22620B1
:102DD000FFF7B8FB5FE14FF46171B048FEF709FD02
:102DE0004FF46171AD48FEF706FD4FF46171AB48D9
:102DF000FEF703FD4FF46171A848FEF700FD0420C3
:102E0000FEF770FD04460620FEF76CFD05460E2019
:102E1000FEF768FD06460820FEF764FD074614B974
:102E20000DB906B91FB12CB925B91EB117B1FDF7FF
:102E300067FB1FE016B10CB905B93FB116B10CB173
:102E400005B91FB12DB127B11EB914B9FDF7A8FB03
:102E500010E017B10CB905B93EB117B10CB105B905
:102E60001EB12DB126B11FB914B9FDF789FB01E0E0
:102E7000FDF776FB0FE10020FEF752FD80460520AE
:102E8000FEF74EFD8146B9F1000F06D1B8F1000FF3
:102E900003D0FDF735FBBDE8F88F4FF461717F4833
:102EA000FEF7A7FC4FF461717C48FEF7A4FC4FF4D9
:102EB00061717A48FEF7A1FC4FF461717748FEF723
:102EC0009EFC0420FEF70EFD04460620FEF70AFDD8
:102ED00005460E20FEF706FD06460820FEF702FD19
:102EE000074614B90DB906B91FB12EB927B91CB1DF
:102EF00015B1FDF705FB1FE014B10FB905B93EB1DF
:102F000014B10FB105B91EB12EB125B11FB914B955
:102F1000FDF7E2FD10E015B10CB906B93FB117B1EC
:102F20000DB104B91EB12CB126B11FB915B9FDF709
:102F3000C3FD01E0FDF7B0FDADE000F0DBFB58485C
:102F40000078E0B3FDF7D8FE55480078FF280BD194
:102F50004FF49660FFF7F6FA002051490870514986
:102F60000870514908702AE04FF4FA60FFF7EAFA56
:102F7000FDF7C6FAFFF7D6F94948007800F0F8FEE9
:102F80004848007818B14748007800F0F1FE4648FC
:102F9000007818B14448007800F0EAFEFDF7E0FA46
:102FA00000BF0620FEF79EFC0028FAD0FDF7A8FA25
:102FB00000203B4908703B4908703B4908700020DD
:102FC000FEF7AEFC80460520FEF7AAFC8146B9F16B
:102FD000000F10D1B8F1000F0DD001200090FDF7C7
:102FE0005BFD9620FFF7AEFAFDF7BAFA40F2262015
:102FF000FFF7A8FA4FE04FF461712848FEF7F9FB9C
:103000004FF461712548FEF7F6FB4FF461712348D8
:10301000FEF7F3FB4FF461712048FEF7F0FB04204C
:10302000FEF760FC04460620FEF75CFC05460E2019
:10303000FEF758FC06460820FEF754FC074614B974
:103040000DB906B91FB12EB927B91CB115B1FDF7DD
:1030500057FA1FE015B10CB907B93EB116B10DB161
:1030600004B91FB12FB124B11EB915B9FDF764FE23
:1030700010E014B10DB906B93FB116B10CB105B9E4
:103080001FB12DB127B11EB914B9FDF745FE01E0FE
:10309000FDF732FE00BF00BF0AE600000008004056
:1030A0003000002031000020320000202DE9FC5FBC
:1030B0004FF0000B0024A0460025A1460026A246A2
:1030C0000027002001900090FDF71AFA54E20198C1
:1030D00030B101287DD0022877D0032826D194E191
:1030E0000720FEF71DFC81460F20FEF719FC8246E3
:1030F000B9F1000F1BD1BAF1000F18D0009840B9F8
:10310000FDF780FA4FF4FA60FFF71CFA01200090F7
:103110000DE003200190FDF723FA9620FFF712FA45
:10312000FDF7EAFD40F2DC50FFF70CFA23E24FF422
:103130006171FC48FEF75DFB4FF46171F948FEF7E1
:103140005AFB4FF46171F748FEF757FB4FF461717A
:10315000F448FEF754FB0420FEF7C4FB04460620A7
:10316000FEF7C0FB05460E20FEF7BCFB0646082016
:10317000FEF7B8FB074614B90DB906B91FB12CB953
:1031800025B91EB117B1FDF7BBF921E017B10CB994
:1031900005B93EB117B10DB104B91EB12EB124B1BC
:1031A0001FB915B9FDF74EFA12E016B10CB905B901
:1031B0003FB116B10DB104B91FB13CB137B12EB951
:1031C00025B9FDF72FFA03E003E072E0FDF71AFAE4
:1031D000D1E10720FEF7A4FB81460F20FEF7A0FBFC
:1031E0008246BAF1000F03D0FDF78AF9BDE8FC9FD3
:1031F000B9F1000F0DD002200190FDF703FA9620DF
:10320000FFF7A0F9FDF748FC40F22620FFF79AF9F6
:10321000B1E14FF46171C348FEF7EBFA4FF461710D
:10322000C048FEF7E8FA4FF46171BE48FEF7E5FAD0
:103230004FF46171BB48FEF7E2FA0420FEF752FB3F
:1032400004460620FEF74EFB05460E20FEF74AFB1D
:1032500006460820FEF746FB074614B90DB906B925
:103260001FB12CB925B91EB117B1FDF749F91FE0FF
:1032700016B10CB905B93FB116B10CB105B91FB102
:103280002DB127B11EB914B9FDF78AF910E017B1B5
:103290000CB905B93EB117B10CB105B91EB12DB1CC
:1032A00026B11FB914B9FDF76BF901E0FDF758F924
:1032B00061E100F01FFA9C480078E0B3FDF7ECFBF9
:1032C00099480078FF280BD14FF49660FFF73AF940
:1032D00000209549087095490870954908702AE0C2
:1032E0004FF4FA60FFF72EF9FDF70AF9FFF71AF825
:1032F0008D48007800F03CFD8C48007818B18B4870
:10330000007800F035FD8A48007818B188480078C8
:1033100000F02EFDFDF724F900BF0620FEF7E2FACB
:103320000028FAD0FDF7ECF800207F4908707F49AB
:1033300008707F4908700020FEF7F2FA83460520E6
:10334000FEF7EEFA8046B8F1000F0DD00120019093
:10335000FDF7D2FC9620FFF7F5F8FDF701F940F2F2
:103360002620FFF7EFF806E100BF4FF461716D48CA
:10337000FEF73FFA4FF461716A48FEF73CFA4FF4EA
:1033800061716848FEF739FA4FF461716548FEF7DC
:1033900036FA0420FEF7A6FA04460620FEF7A2FA43
:1033A00005460E20FEF79EFA06460820FEF79AFA1A
:1033B000074614B90DB906B91FB12EB927B91CB10A
:1033C00015B1FDF79DF81FE014B10FB905B93EB175
:1033D00014B10FB105B91EB12EB125B11FB914B981
:1033E000FDF77AFB10E015B10CB906B93FB117B182
:1033F0000DB104B91EB12CB126B11FB915B9FDF735
:103400005BFB01E0FDF748FBB5E000F073F94648CF
:103410000078E0B3FDF770FC43480078FF280BD13B
:103420004FF49660FFF78EF800203F4908703F493F
:1034300008703F4908702AE04FF4FA60FFF782F8FD
:10344000FDF75EF8FEF76EFF3748007800F090FC5D
:103450003648007818B13548007800F089FC3448C7
:10346000007818B13248007800F082FCFDF778F857
:1034700000BF0620FEF736FA0028FAD0FDF740F824
:10348000002029490870294908702949087000203E
:10349000FEF746FA83460520FEF742FA8046BBF166
:1034A000000F10D1B8F1000F0DD001200190FDF7F1
:1034B000F3FA9620FFF746F8FDF752F840F226207F
:1034C000FFF740F857E04FF461711648FEF791F9A5
:1034D0004FF461711348FEF78EF94FF46171114892
:1034E000FEF78BF94FF461710E48FEF788F904205E
:1034F000FEF7F8F904460620FEF7F4F905460E201B
:10350000FEF7F0F906460820FEF7ECF9074614B975
:103510000DB906B91FB16EB967B95CB155B1FCF709
:10352000EFFF27E0000800403000002031000020BD
:103530003200002015B10CB907B93EB116B10DB17A
:1035400004B91FB12FB124B11EB915B9FDF7F4FBB1
:1035500010E014B10DB906B93FB116B10CB105B9FF
:103560001FB12DB127B11EB914B9FDF7D5FB01E08C
:10357000FDF7C2FB00BF00BFA9E5000070B5002445
:1035800008215648FDF7DBF86420FEF7DBFF07E073
:10359000002201210820FEF765FA3220FEF7D2FF53
:1035A0004F4800680028F3D010214C48FDF7C7F8B9
:1035B0006420FEF7C7FF07E0002201210820FEF784
:1035C000BFFB3220FEF7BEFF464800680028F3D05C
:1035D0000020444908604249086078E007E0002282
:1035E00010210120FEF73EFA3220FEF7ABFF3C48E7
:1035F00000680028F3D0002039490860002516E053
:1036000000260DE005EB850000EBC50036490844B7
:10361000815D364AF01D105C814200D002E0761CCC
:10362000092EEFDB00BF092E00DB02E06D1CA54276
:10363000E6DB00BFA5424ADB00250AE02B49E81D76
:10364000085C04EB840101EBC401274A114448558E
:103650006D1C092DF2DB0CE004EB840000EBC400D0
:103660002149421810210520FEF7FCF93220FEF70F
:1036700069FF1B4800680028EED000201849086048
:103680001A48C07904EB840101EBC401164A1144C5
:1036900048721648007A04EB840101EBC40111441E
:1036A00088721248407A04EB840101EBC401114492
:1036B000C8724FF480710E48FDF741F81E20FEF7E6
:1036C00041FF4FF480710A48FDF737F8641C052C60
:1036D00084DB08210148FDF730F870BD000C024082
:1036E000280000202C000020A00200201001002053
:1036F0000014024010B54748006800287FD04648B3
:10370000007800287BD143490860002405E0434944
:10371000E01D085C42490855641C092CF7DB07E0F2
:103720003F4A10210520FEF70BFB3220FEF70AFF6F
:10373000384800680028F3D0002036490860374830
:10374000C0793749487200244FE03548407A04EB8D
:10375000840101EBC401334A1144097B884243D1FF
:103760002D480078A0B9601C2B49087008460078E5
:103770000007000E087004EB840000EBC400114643
:103780000844807A244909780844234908702BE0CA
:1037900025480078A0B9601C2349087008460078C5
:1037A0000007000E087004EB840000EBC4001D4904
:1037B0000844807A1C49097808441B49087013E0C2
:1037C000601C1A490870084600780007000E08704F
:1037D00004EB840000EBC40012490844807A1349CA
:1037E0000978084411490870641C052CADDB0A48AF
:1037F000007810B9FF200849087010BDFFE70022CB
:1038000010210120FEF79CFA0A20FEF79BFE00BF64
:10381000F3E700002C00002030000020D801002039
:10382000E1020020A0020020310000203200002030
:1038300010B588B04FF4964401210420FDF7A8F993
:1038400001210820FDF7A4F90121C804FDF7B0F912
:1038500001210805FDF7ACF91820069001208DF82C
:103860001C0003208DF81D0000208DF81E00022092
:103870008DF81F0006A93948FCF7F4FE18213748D7
:10388000FCF75BFF08220A213548FCF733FF0822CA
:103890000B213348FCF72EFF08220C213048FCF79F
:1038A00029FF082202212D48FCF724FF4FF4E050A5
:1038B000069002208DF81C008DF81D0000208DF868
:1038C0001E0001208DF81F0006A92548FCF7CAFE3E
:1038D0000420069006A92148FCF7C4FE02940020AB
:1038E000ADF80C00ADF80E00ADF81000ADF8140006
:1038F0000C20ADF8120002A91A48FEF7ABFB02A992
:103900001948FEF7A7FB01211648FEF747FB0121E6
:103910001548FEF743FB012240F225511148FEF7FE
:1039200073FB012240F225510F48FEF76DFB342056
:103930008DF8040002208DF8050001208DF80600A6
:103940008DF8070001A8FDF7DBF835208DF804009D
:1039500001A8FDF7D5F808B010BD0000000C02402A
:1039600000080240004C0040005000402DE9F041AA
:1039700040F2B2254FF4BE664FF48C6734460DE03A
:1039800021461248FDF737FFBC4203D31E20FEF745
:10399000D9FD02E01920FEF7D5FD0A3CAC42EFD27A
:1039A0004FF47A70FEF7CEFD2C4607E0214607481B
:1039B000FDF721FF2820FEF7C5FD0A34B442F5D9F2
:1039C00000210248FDF717FFBDE8F0810018004014
:1039D00030B58BB040F69F75A72401214020FDF73C
:1039E000D7F801210420FDF7D3F83C2009900120ED
:1039F0008DF8280000208DF82A0003208DF829007A
:103A000001208DF82B0009A93B48FCF72BFE3C2137
:103A10003948FCF792FE01210846FDF7D9F801214B
:103A20001020FDF7B5F801220B213448FCF762FEA7
:103A300001220D213148FCF75DFE02208DF828009F
:103A400003208DF8290000208DF82A0001208DF830
:103A50002B004FF42050099009A92848FCF702FEDA
:103A6000ADF818400020ADF81A000795ADF8200019
:103A700009208DF8220006A92148FDF7F1FE012159
:103A80001F48FDF7DDFC012211461D48FDF747FDEB
:103A90007020ADF804000120ADF806000220ADF85A
:103AA00010001748806B039001A91548FDF790FDA1
:103AB00008211348FDF7EBFD1148C06B039001A9E5
:103AC0000F48FDF7F1FD08210D48FDF73DFE0121EE
:103AD0000B48FDF7A9FC19208DF8000001208DF896
:103AE000010002208DF8020001208DF803006846D5
:103AF000FDF706F80BB030BD001802400010024080
:103B0000000001402DE9F05F06460F461546984635
:103B10003048B0FBF6F9B0FBF7FA4C464FF00A0B11
:103B2000B8F1000F04D004212B48FCF708FE03E095
:103B300004212948FCF701FE21462848FDF757FEDD
:103B400061082648FDF759FE00212448FDF753FE81
:103B500001212248FDF77AFC01212048FDF782FC73
:103B600037E01F480078002833D000201C49087037
:103B7000544502D80DB16D1E2BE054450BD955B1FB
:103B8000A4EB0B0421461548FDF731FE61081348EC
:103B9000FDF733FE1DE05DB94C4509D85C44214674
:103BA0000E48FDF724FE61080C48FDF726FE10E0E4
:103BB00000210A48FDF721FE00210848FDF746FCD8
:103BC00000210648FDF74EFC002005490870BDE8BD
:103BD000F09FC6E740420F0000180240000001407D
:103BE000330000202DE9F05F06460F461546984643
:103BF0003048B0FBF6F9B0FBF7FA4C464FF00A0B31
:103C0000B8F1000F04D010212B48FCF798FD03E019
:103C100010212948FCF791FD21462848FDF7E7FDD2
:103C200061082648FDF7E7FD00212448FDF7E5FD82
:103C300001212248FDF70AFC01212048FDF712FC72
:103C400037E01F480078002833D000201C49087056
:103C5000544502D80DB16D1E2BE054450BD955B11A
:103C6000A4EB0B0421461548FDF7C1FD610813487C
:103C7000FDF7C1FD1DE05DB94C4509D85C44214606
:103C80000E48FDF7B4FD61080C48FDF7B4FD10E0E7
:103C900000210A48FDF7AFFD00210848FDF7D6FBDB
:103CA00000210648FDF7DEFB002005490870BDE84D
:103CB000F09FC6E740420F0000180240000001409C
:103CC0003300002010B588B0044601210846FCF7F7
:103CD0005FFF01211020FCF77BFF0722092122480A
:103CE000FCF708FD07220A211F48FCF703FD4FF4EB
:103CF000C060069002208DF81C008DF81D00002089
:103D00008DF81E0001208DF81F0006A91648FCF74B
:103D1000A9FC02940020ADF80C00ADF80E00ADF83F
:103D20001000ADF814000C20ADF8120002A90F48E5
:103D3000FEF790F901210D48FEF730F9012240F21B
:103D400025510A48FEF760F925208DF8040003206C
:103D50008DF805008DF8060001208DF8070001A8F8
:103D6000FCF7CEFE08B010BD00000240001001407C
:103D700010B50446200906287DD2DFE800F0800354
:103D8000203B4661012340F2B2224FF4FA614FF426
:103D90001670FFF7B7FEFFF7E9FDFEF7A5FB40F24F
:103DA000DC50FEF7CFFBFEF7A7FB002340F2B22268
:103DB0004FF4FA614FF41670FFF7A4FE60E00123A0
:103DC000F0224FF4FA614FF41670FFF79BFEFFF7F5
:103DD000CDFDFEF789FB40F2DC50FEF7B3FBFEF7AA
:103DE0008BFB0023F0224FF4FA614FF41670FFF7BB
:103DF00089FE45E0FFF7BAFDFEF776FB40F2DC50A6
:103E0000FEF7A0FBFEF778FB3AE00023E6224FF432
:103E1000FA614FF41670FFF775FEFFF7A7FDFEF786
:103E200063FB40F2DC50FEF78DFBFEF765FB0123E0
:103E3000E6224FF4FA614FF41670FFF763FE1FE0BD
:103E400000234FF42F724FF4FA614FF41670FFF70E
:103E500059FEFFF78BFDFEF747FB40F2DC50FEF703
:103E600071FBFEF749FB01234FF42F724FF4FA6107
:103E70004FF4167000E002E0FFF744FE00E000BFE0
:103E800000BF04F00F00022804D0032821D004282A
:103E90005DD13DE001234FF47A7242F2283140F6C1
:103EA000C410FFF79FFE4FF4FA70FEF74BFBFEF7CE
:103EB0001BFB4FF47A60FEF745FBFEF71DFB00236A
:103EC0004FF47A7242F2283140F6C410FFF78AFEAE
:103ED0003DE0002341F6902242F2283140F6C41022
:103EE000FFF780FE4FF4FA70FEF72CFBFEF7FCFAAA
:103EF0004FF47A60FEF726FBFEF7FEFA012341F647
:103F0000902242F2283140F6C410FFF76BFE1EE00B
:103F1000002343F6D01242F2283140F6C410FFF7D6
:103F200061FE4FF4FA70FEF70DFBFEF7DDFA4FF479
:103F30007A60FEF707FBFEF7DFFA012343F6D012A3
:103F400042F2283140F6C410FFF74CFE00BF00BF1C
:103F500010BD491058BFC1F140415B1058BFC3F1BB
:103F600040438B42EFF300807047B0FA80F310FAC1
:103F700003F10AD0C3F11D0303F580634FEA4150FA
:103F80004FEA035202EBD12170474FF00000704717
:103F900051EA030C17D41CF5801F58BFBCF5801FD5
:103FA00000F10680994218BF704708BF90427047E1
:103FB00007D711F5801F58BF13F5801F19D49942F8
:103FC0007047894270471CF5801F08D5BCF5801FDB
:103FD000F7D58B4218BF704708BF824270474FF435
:103FE000001C1CEB410F38BF1CEB430F01D28B426E
:103FF000704770B500F0B2F8922449004FF00051BC
:104000004FF08053FFF7A5BFDFF848C170B51CEA39
:10401000111E1EBF1CEA13159EEA0C0F95EA0C0F29
:1040200000F06F8081EA030423EA4C134EEAD47E49
:1040300021EA4C1141F4801143F48013AE44A1FBFA
:10404000024CA0FB0365AEF17F7E361955EB0C05E3
:10405000A1FB034C4CF10003A0FB021C16EB0C0669
:10406000654153F10003094218BF46F0010613F4FD
:10407000007F0BD14FEA03314FEA0530340341EAA8
:10408000155140EA16506FF003020AE04FEAC321CF
:104090004FEAC520F40241EA555140EA56506FF00C
:1040A000020202EB2E4201EB025585EACE710AD0E4
:1040B0005FEA440C18BF24F0004450F1000041F1C5
:1040C000000120EAD47040F2FE7C624500D270BD4F
:1040D000A84214BF4FF080444FF04044002E08BF68
:1040E0000024BEF1806FA8BFA1F1C041BDE87040BF
:1040F00080F282804FF0000001F1C04101F00041E8
:1041000070479EEA0C0F0CEA131518BF95EA0C0FC6
:1041100006D04FF0000081EA030E0EF0004170BDA2
:1041200000F01CF88900013E00F007B800F009B863
:104130004FEA430C5FEA5C5C08D081EA030100F0BF
:104140005BB84FEA410C5FEA5C5CF6D14FF00000CF
:10415000014970470000FF070000F87F0EF1020ED2
:104160002EF0030E5EF8046B364205D4012A43EBB1
:10417000030515F5001F12D8012841EB010C1CF5B1
:10418000001F0CD80ED14FEAD17C15F5001F0CEBA7
:104190004C0C0CF1020C08BF4CEBD37C04E04FF04C
:1041A000080C01E04FEAD37C0CEB4C0526FA05F62F
:1041B00006F00706B6F1040C06D20EEB860CBDE83D
:1041C00070404CF0010C6047DFE80CF0090B020274
:1041D0004FF000414FF00000A1F5002170BD1946DD
:1041E0001046012851EB010418BFD4F5001484BF18
:1041F000002001F0004170BD0808A0F500114FEA51
:104200003101704753EA010C17D41CF5801F58BFC9
:10421000BCF5801F00F106808B4218BF704708BFB5
:104220008242704707D713F5801F58BF11F5801FD2
:1042300019D48B4270479B4270471CF5801F08D5EC
:10424000BCF5801FF7D5994218BF704708BF904250
:1042500070474FF4001C1CEB430F38BF1CEB410FA1
:1042600001D2994270470FB40CBC03BCFFF7C1BE2A
:104270004FF04070E1EE100A70470000AABB060044
:104280000000080131000000AABB06000000070181
:1042900003000000AABB050000000110AABB10002B
:1042A00000000510000000000000000000000100F8
:1042B000AABB06000000080131000000AABB0600EE
:1042C0000000070103000000AABB05000000011068
:1042D000AABB100000000510000000000000000054
:1042E000000001000443000800000020340000002A
:1042F000C401000838430008340000201C090000F5
:10430000E0010008000000000102030401020304B0
:10431000060708090000000000000000000000007F
:10432000000000000000000000000000000000008D
:08433000000000000000000085
:040000050800018965
:00000001FF
